{"abi":[{"type":"constructor","inputs":[{"name":"_asset","type":"address","internalType":"address"},{"name":"_strategyManager","type":"address","internalType":"address"},{"name":"_initialOwner","type":"address","internalType":"address"}],"stateMutability":"nonpayable"},{"type":"function","name":"MOCK_APY","inputs":[],"outputs":[{"name":"","type":"uint256","internalType":"uint256"}],"stateMutability":"view"},{"type":"function","name":"asset","inputs":[],"outputs":[{"name":"","type":"address","internalType":"contract IERC20"}],"stateMutability":"view"},{"type":"function","name":"balanceOf","inputs":[],"outputs":[{"name":"","type":"uint256","internalType":"uint256"}],"stateMutability":"view"},{"type":"function","name":"deposit","inputs":[{"name":"amount","type":"uint256","internalType":"uint256"}],"outputs":[{"name":"","type":"uint256","internalType":"uint256"}],"stateMutability":"nonpayable"},{"type":"function","name":"emergencyWithdraw","inputs":[],"outputs":[],"stateMutability":"nonpayable"},{"type":"function","name":"harvestYield","inputs":[],"outputs":[{"name":"","type":"uint256","internalType":"uint256"}],"stateMutability":"nonpayable"},{"type":"function","name":"lastHarvestTimestamp","inputs":[],"outputs":[{"name":"","type":"uint256","internalType":"uint256"}],"stateMutability":"view"},{"type":"function","name":"lastUpdateTime","inputs":[],"outputs":[{"name":"","type":"uint256","internalType":"uint256"}],"stateMutability":"view"},{"type":"function","name":"name","inputs":[],"outputs":[{"name":"","type":"string","internalType":"string"}],"stateMutability":"view"},{"type":"function","name":"owner","inputs":[],"outputs":[{"name":"","type":"address","internalType":"address"}],"stateMutability":"view"},{"type":"function","name":"renounceOwnership","inputs":[],"outputs":[],"stateMutability":"nonpayable"},{"type":"function","name":"setStrategyManager","inputs":[{"name":"_manager","type":"address","internalType":"address"}],"outputs":[],"stateMutability":"nonpayable"},{"type":"function","name":"strategyManager","inputs":[],"outputs":[{"name":"","type":"address","internalType":"address"}],"stateMutability":"view"},{"type":"function","name":"strategyName","inputs":[],"outputs":[{"name":"","type":"string","internalType":"string"}],"stateMutability":"view"},{"type":"function","name":"totalAssets","inputs":[],"outputs":[{"name":"","type":"uint256","internalType":"uint256"}],"stateMutability":"view"},{"type":"function","name":"totalDeposited","inputs":[],"outputs":[{"name":"","type":"uint256","internalType":"uint256"}],"stateMutability":"view"},{"type":"function","name":"totalYieldHarvested","inputs":[],"outputs":[{"name":"","type":"uint256","internalType":"uint256"}],"stateMutability":"view"},{"type":"function","name":"transferOwnership","inputs":[{"name":"newOwner","type":"address","internalType":"address"}],"outputs":[],"stateMutability":"nonpayable"},{"type":"function","name":"withdraw","inputs":[{"name":"amount","type":"uint256","internalType":"uint256"}],"outputs":[{"name":"","type":"uint256","internalType":"uint256"}],"stateMutability":"nonpayable"},{"type":"function","name":"withdrawAll","inputs":[],"outputs":[{"name":"","type":"uint256","internalType":"uint256"}],"stateMutability":"nonpayable"},{"type":"event","name":"Deposited","inputs":[{"name":"amount","type":"uint256","indexed":false,"internalType":"uint256"}],"anonymous":false},{"type":"event","name":"EmergencyWithdraw","inputs":[{"name":"amount","type":"uint256","indexed":false,"internalType":"uint256"}],"anonymous":false},{"type":"event","name":"OwnershipTransferred","inputs":[{"name":"previousOwner","type":"address","indexed":true,"internalType":"address"},{"name":"newOwner","type":"address","indexed":true,"internalType":"address"}],"anonymous":false},{"type":"event","name":"Withdrawn","inputs":[{"name":"amount","type":"uint256","indexed":false,"internalType":"uint256"}],"anonymous":false},{"type":"event","name":"YieldHarvested","inputs":[{"name":"amount","type":"uint256","indexed":false,"internalType":"uint256"}],"anonymous":false}],"bytecode":{"object":"0x60a060405234801562000010575f80fd5b5060405162001384380380620013848339810160408190526200003391620001d6565b8282604051806040016040528060128152602001714d6f636b204161766520537472617465677960701b815250836200007b620000756200016760201b60201c565b6200016b565b6001600160a01b038416620000c75760405162461bcd60e51b815260206004820152600d60248201526c125b9d985b1a5908185cdcd95d609a1b60448201526064015b60405180910390fd5b6001600160a01b038316620001115760405162461bcd60e51b815260206004820152600f60248201526e24b73b30b634b21036b0b730b3b2b960891b6044820152606401620000be565b6200011c816200016b565b6001600160a01b03848116608052600180546001600160a01b03191691851691909117905560056200014f8382620002bb565b50504260048190556006555062000387945050505050565b3390565b5f80546001600160a01b038381166001600160a01b0319831681178455604051919092169283917f8be0079c531659141344cd1fd0a4f28419497f9722a3daafe3b4186f6b6457e09190a35050565b80516001600160a01b0381168114620001d1575f80fd5b919050565b5f805f60608486031215620001e9575f80fd5b620001f484620001ba565b92506200020460208501620001ba565b91506200021460408501620001ba565b90509250925092565b634e487b7160e01b5f52604160045260245ffd5b600181811c908216806200024657607f821691505b6020821081036200026557634e487b7160e01b5f52602260045260245ffd5b50919050565b601f821115620002b657805f5260205f20601f840160051c81016020851015620002925750805b601f840160051c820191505b81811015620002b3575f81556001016200029e565b50505b505050565b81516001600160401b03811115620002d757620002d76200021d565b620002ef81620002e8845462000231565b846200026b565b602080601f83116001811462000325575f84156200030d5750858301515b5f19600386901b1c1916600185901b1785556200037f565b5f85815260208120601f198616915b82811015620003555788860151825594840194600190910190840162000334565b50858210156200037357878501515f19600388901b60f8161c191681555b505060018460011b0185555b505050505050565b608051610fba620003ca5f395f818161018e0152818161027f01528181610487015281816105c7015281816106aa0152818161075401526108a50152610fba5ff3fe608060405234801561000f575f80fd5b5060043610610127575f3560e01c8063722713f7116100a9578063db2e21bc1161006e578063db2e21bc14610234578063e173ad251461023c578063e8d991d114610244578063f2fde38b1461024c578063ff50abdc1461025f575f80fd5b8063722713f7146101f8578063853828b6146102005780638da5cb5b14610208578063b6b55f2514610218578063c8f33c911461022b575f80fd5b80632e1a7d4d116100ef5780632e1a7d4d1461017657806338d52e0f1461018957806339b70e38146101c85780635c966646146101db578063715018a6146101f0575f80fd5b806301e1d1141461012b57806306fdde03146101465780631bfd9e671461015b5780632257a7381461016457806322a6619e1461016d575b5f80fd5b610133610268565b6040519081526020015b60405180910390f35b61014e610302565b60405161013d9190610de9565b6101336101f481565b61013360045481565b61013360035481565b610133610184366004610e1b565b610392565b6101b07f000000000000000000000000000000000000000000000000000000000000000081565b6040516001600160a01b03909116815260200161013d565b6001546101b0906001600160a01b031681565b6101ee6101e9366004610e32565b6104ea565b005b6101ee61055c565b61013361056f565b610133610579565b5f546001600160a01b03166101b0565b610133610226366004610e1b565b610629565b61013360065481565b6101ee61071e565b61014e6107b1565b61013361083d565b6101ee61025a366004610e32565b6108fe565b61013360025481565b6040516370a0823160e01b81523060048201525f907f00000000000000000000000000000000000000000000000000000000000000006001600160a01b0316906370a0823190602401602060405180830381865afa1580156102cc573d5f803e3d5ffd5b505050506040513d601f19601f820116820180604052508101906102f09190610e5f565b6002546102fd9190610e8a565b905090565b60606005805461031190610ea3565b80601f016020809104026020016040519081016040528092919081815260200182805461033d90610ea3565b80156103885780601f1061035f57610100808354040283529160200191610388565b820191905f5260205f20905b81548152906001019060200180831161036b57829003601f168201915b5050505050905090565b6001545f906001600160a01b031633146103c75760405162461bcd60e51b81526004016103be90610edb565b60405180910390fd5b5f821161040b5760405162461bcd60e51b81526020600482015260126024820152710416d6f756e74206d757374206265203e20360741b60448201526064016103be565b6002548211156104545760405162461bcd60e51b8152602060048201526014602482015273496e73756666696369656e742062616c616e636560601b60448201526064016103be565b5f61045e83610977565b90508060025f8282546104719190610f01565b90915550506001546104b0906001600160a01b037f000000000000000000000000000000000000000000000000000000000000000081169116836109c5565b6040518181527f430648de173157e069201c943adb2d4e340e7cf5b27b1b09c9cb852f03d63b56906020015b60405180910390a192915050565b6104f2610a2d565b6001600160a01b03811661053a5760405162461bcd60e51b815260206004820152600f60248201526e496e76616c6964206164647265737360881b60448201526064016103be565b600180546001600160a01b0319166001600160a01b0392909216919091179055565b610564610a2d565b61056d5f610a86565b565b5f6102fd60025490565b6001545f906001600160a01b031633146105a55760405162461bcd60e51b81526004016103be90610edb565b5f6105af60025490565b5f6002556001549091506105f0906001600160a01b037f000000000000000000000000000000000000000000000000000000000000000081169116836109c5565b6040518181527f430648de173157e069201c943adb2d4e340e7cf5b27b1b09c9cb852f03d63b56906020015b60405180910390a1905090565b6001545f906001600160a01b031633146106555760405162461bcd60e51b81526004016103be90610edb565b5f82116106995760405162461bcd60e51b81526020600482015260126024820152710416d6f756e74206d757374206265203e20360741b60448201526064016103be565b6001546106d4906001600160a01b037f0000000000000000000000000000000000000000000000000000000000000000811691163085610ad5565b5f8290508060025f8282546106e99190610e8a565b90915550506040518181527f2a89b2e3d580398d6dc2db5e0f336b52602bbaa51afa9bb5cdf59239cf0d2bea906020016104dc565b610726610a2d565b5f61073060025490565b5f600255905061077b61074a5f546001600160a01b031690565b6001600160a01b037f00000000000000000000000000000000000000000000000000000000000000001690836109c5565b6040518181527f99d7f8b71cfb9126984f7a5eed3a40e64a8959e9b0e442221546fb04ec6a489c9060200160405180910390a150565b600580546107be90610ea3565b80601f01602080910402602001604051908101604052809291908181526020018280546107ea90610ea3565b80156108355780601f1061080c57610100808354040283529160200191610835565b820191905f5260205f20905b81548152906001019060200180831161081857829003601f168201915b505050505081565b6001545f906001600160a01b031633146108695760405162461bcd60e51b81526004016103be90610edb565b5f610872610b13565b905080156102fd578060035f82825461088b9190610e8a565b9091555050426004556001546108ce906001600160a01b037f000000000000000000000000000000000000000000000000000000000000000081169116836109c5565b6040518181527feb2d114a827fe0da3db4c0e374010959cf461f7ed76987aeff51666dea9add9b9060200161061c565b610906610a2d565b6001600160a01b03811661096b5760405162461bcd60e51b815260206004820152602660248201527f4f776e61626c653a206e6577206f776e657220697320746865207a65726f206160448201526564647265737360d01b60648201526084016103be565b61097481610a86565b50565b5f6002548211156109c15760405162461bcd60e51b8152602060048201526014602482015273496e73756666696369656e742062616c616e636560601b60448201526064016103be565b5090565b6040516001600160a01b038316602482015260448101829052610a2890849063a9059cbb60e01b906064015b60408051601f198184030181529190526020810180516001600160e01b03166001600160e01b031990931692909217909152610b6a565b505050565b5f546001600160a01b0316331461056d5760405162461bcd60e51b815260206004820181905260248201527f4f776e61626c653a2063616c6c6572206973206e6f7420746865206f776e657260448201526064016103be565b5f80546001600160a01b038381166001600160a01b0319831681178455604051919092169283917f8be0079c531659141344cd1fd0a4f28419497f9722a3daafe3b4186f6b6457e09190a35050565b6040516001600160a01b0380851660248301528316604482015260648101829052610b0d9085906323b872dd60e01b906084016109f1565b50505050565b5f8060065442610b239190610f01565b9050805f03610b33575f91505090565b5f64496cebb800826101f4600254610b4b9190610f14565b610b559190610f14565b610b5f9190610f2b565b426006559392505050565b5f610bbe826040518060400160405280602081526020017f5361666545524332303a206c6f772d6c6576656c2063616c6c206661696c6564815250856001600160a01b0316610c3d9092919063ffffffff16565b905080515f1480610bde575080806020019051810190610bde9190610f4a565b610a285760405162461bcd60e51b815260206004820152602a60248201527f5361666545524332303a204552433230206f7065726174696f6e20646964206e6044820152691bdd081cdd58d8d9595960b21b60648201526084016103be565b6060610c4b84845f85610c53565b949350505050565b606082471015610cb45760405162461bcd60e51b815260206004820152602660248201527f416464726573733a20696e73756666696369656e742062616c616e636520666f6044820152651c8818d85b1b60d21b60648201526084016103be565b5f80866001600160a01b03168587604051610ccf9190610f69565b5f6040518083038185875af1925050503d805f8114610d09576040519150601f19603f3d011682016040523d82523d5f602084013e610d0e565b606091505b5091509150610d1f87838387610d2a565b979650505050505050565b60608315610d985782515f03610d91576001600160a01b0385163b610d915760405162461bcd60e51b815260206004820152601d60248201527f416464726573733a2063616c6c20746f206e6f6e2d636f6e747261637400000060448201526064016103be565b5081610c4b565b610c4b8383815115610dad5781518083602001fd5b8060405162461bcd60e51b81526004016103be9190610de9565b5f5b83811015610de1578181015183820152602001610dc9565b50505f910152565b602081525f8251806020840152610e07816040850160208701610dc7565b601f01601f19169190910160400192915050565b5f60208284031215610e2b575f80fd5b5035919050565b5f60208284031215610e42575f80fd5b81356001600160a01b0381168114610e58575f80fd5b9392505050565b5f60208284031215610e6f575f80fd5b5051919050565b634e487b7160e01b5f52601160045260245ffd5b80820180821115610e9d57610e9d610e76565b92915050565b600181811c90821680610eb757607f821691505b602082108103610ed557634e487b7160e01b5f52602260045260245ffd5b50919050565b6020808252600c908201526b27b7363c9036b0b730b3b2b960a11b604082015260600190565b81810381811115610e9d57610e9d610e76565b8082028115828204841417610e9d57610e9d610e76565b5f82610f4557634e487b7160e01b5f52601260045260245ffd5b500490565b5f60208284031215610f5a575f80fd5b81518015158114610e58575f80fd5b5f8251610f7a818460208701610dc7565b919091019291505056fea2646970667358221220c479ce81609153aa0d41fef79fd6e508642c2b2d3cf24b40db289216dda09e0364736f6c63430008180033","linkReferences":{}},"methodIdentifiers":{"MOCK_APY()":"1bfd9e67","asset()":"38d52e0f","balanceOf()":"722713f7","deposit(uint256)":"b6b55f25","emergencyWithdraw()":"db2e21bc","harvestYield()":"e8d991d1","lastHarvestTimestamp()":"2257a738","lastUpdateTime()":"c8f33c91","name()":"06fdde03","owner()":"8da5cb5b","renounceOwnership()":"715018a6","setStrategyManager(address)":"5c966646","strategyManager()":"39b70e38","strategyName()":"e173ad25","totalAssets()":"01e1d114","totalDeposited()":"ff50abdc","totalYieldHarvested()":"22a6619e","transferOwnership(address)":"f2fde38b","withdraw(uint256)":"2e1a7d4d","withdrawAll()":"853828b6"},"id":46}