{"abi":[{"type":"constructor","inputs":[{"name":"_asset","type":"address","internalType":"address"},{"name":"_strategyManager","type":"address","internalType":"address"},{"name":"_donationAddress","type":"address","internalType":"address"},{"name":"_initialOwner","type":"address","internalType":"address"}],"stateMutability":"nonpayable"},{"type":"function","name":"MOCK_APY","inputs":[],"outputs":[{"name":"","type":"uint256","internalType":"uint256"}],"stateMutability":"view"},{"type":"function","name":"asset","inputs":[],"outputs":[{"name":"","type":"address","internalType":"contract IERC20"}],"stateMutability":"view"},{"type":"function","name":"balanceOf","inputs":[],"outputs":[{"name":"","type":"uint256","internalType":"uint256"}],"stateMutability":"view"},{"type":"function","name":"deposit","inputs":[{"name":"amount","type":"uint256","internalType":"uint256"}],"outputs":[{"name":"","type":"uint256","internalType":"uint256"}],"stateMutability":"nonpayable"},{"type":"function","name":"donationAddress","inputs":[],"outputs":[{"name":"","type":"address","internalType":"address"}],"stateMutability":"view"},{"type":"function","name":"emergencyWithdraw","inputs":[],"outputs":[],"stateMutability":"nonpayable"},{"type":"function","name":"expectedYearlyDonation","inputs":[],"outputs":[{"name":"","type":"uint256","internalType":"uint256"}],"stateMutability":"view"},{"type":"function","name":"getYieldStats","inputs":[],"outputs":[{"name":"totalDonated","type":"uint256","internalType":"uint256"},{"name":"lastDonation","type":"uint256","internalType":"uint256"},{"name":"recipient","type":"address","internalType":"address"},{"name":"currentBalance","type":"uint256","internalType":"uint256"},{"name":"estimatedAPY","type":"uint256","internalType":"uint256"}],"stateMutability":"view"},{"type":"function","name":"harvestYield","inputs":[],"outputs":[{"name":"","type":"uint256","internalType":"uint256"}],"stateMutability":"nonpayable"},{"type":"function","name":"lastDonationTimestamp","inputs":[],"outputs":[{"name":"","type":"uint256","internalType":"uint256"}],"stateMutability":"view"},{"type":"function","name":"lastHarvestTimestamp","inputs":[],"outputs":[{"name":"","type":"uint256","internalType":"uint256"}],"stateMutability":"view"},{"type":"function","name":"name","inputs":[],"outputs":[{"name":"","type":"string","internalType":"string"}],"stateMutability":"view"},{"type":"function","name":"owner","inputs":[],"outputs":[{"name":"","type":"address","internalType":"address"}],"stateMutability":"view"},{"type":"function","name":"pendingYield","inputs":[],"outputs":[{"name":"","type":"uint256","internalType":"uint256"}],"stateMutability":"view"},{"type":"function","name":"renounceOwnership","inputs":[],"outputs":[],"stateMutability":"nonpayable"},{"type":"function","name":"setDonationAddress","inputs":[{"name":"_newAddress","type":"address","internalType":"address"}],"outputs":[],"stateMutability":"nonpayable"},{"type":"function","name":"setStrategyManager","inputs":[{"name":"_manager","type":"address","internalType":"address"}],"outputs":[],"stateMutability":"nonpayable"},{"type":"function","name":"strategyManager","inputs":[],"outputs":[{"name":"","type":"address","internalType":"address"}],"stateMutability":"view"},{"type":"function","name":"strategyName","inputs":[],"outputs":[{"name":"","type":"string","internalType":"string"}],"stateMutability":"view"},{"type":"function","name":"totalAssets","inputs":[],"outputs":[{"name":"","type":"uint256","internalType":"uint256"}],"stateMutability":"view"},{"type":"function","name":"totalDeposited","inputs":[],"outputs":[{"name":"","type":"uint256","internalType":"uint256"}],"stateMutability":"view"},{"type":"function","name":"totalYieldDonated","inputs":[],"outputs":[{"name":"","type":"uint256","internalType":"uint256"}],"stateMutability":"view"},{"type":"function","name":"totalYieldHarvested","inputs":[],"outputs":[{"name":"","type":"uint256","internalType":"uint256"}],"stateMutability":"view"},{"type":"function","name":"transferOwnership","inputs":[{"name":"newOwner","type":"address","internalType":"address"}],"outputs":[],"stateMutability":"nonpayable"},{"type":"function","name":"withdraw","inputs":[{"name":"amount","type":"uint256","internalType":"uint256"}],"outputs":[{"name":"","type":"uint256","internalType":"uint256"}],"stateMutability":"nonpayable"},{"type":"function","name":"withdrawAll","inputs":[],"outputs":[{"name":"","type":"uint256","internalType":"uint256"}],"stateMutability":"nonpayable"},{"type":"event","name":"Deposited","inputs":[{"name":"amount","type":"uint256","indexed":false,"internalType":"uint256"}],"anonymous":false},{"type":"event","name":"DonationAddressUpdated","inputs":[{"name":"oldAddress","type":"address","indexed":true,"internalType":"address"},{"name":"newAddress","type":"address","indexed":true,"internalType":"address"}],"anonymous":false},{"type":"event","name":"EmergencyWithdraw","inputs":[{"name":"amount","type":"uint256","indexed":false,"internalType":"uint256"}],"anonymous":false},{"type":"event","name":"OwnershipTransferred","inputs":[{"name":"previousOwner","type":"address","indexed":true,"internalType":"address"},{"name":"newOwner","type":"address","indexed":true,"internalType":"address"}],"anonymous":false},{"type":"event","name":"Withdrawn","inputs":[{"name":"amount","type":"uint256","indexed":false,"internalType":"uint256"}],"anonymous":false},{"type":"event","name":"YieldDonated","inputs":[{"name":"recipient","type":"address","indexed":true,"internalType":"address"},{"name":"amount","type":"uint256","indexed":false,"internalType":"uint256"},{"name":"timestamp","type":"uint256","indexed":false,"internalType":"uint256"}],"anonymous":false},{"type":"event","name":"YieldHarvested","inputs":[{"name":"amount","type":"uint256","indexed":false,"internalType":"uint256"}],"anonymous":false}],"bytecode":{"object":"0x60a060405234801562000010575f80fd5b506040516200181738038062001817833981016040819052620000339162000257565b83836040518060400160405280601e81526020017f4f6374616e74205969656c6420446f6e6174696e672053747261746567790000815250836200008662000080620001e860201b60201c565b620001ec565b6001600160a01b038416620000d25760405162461bcd60e51b815260206004820152600d60248201526c125b9d985b1a5908185cdcd95d609a1b60448201526064015b60405180910390fd5b6001600160a01b0383166200011c5760405162461bcd60e51b815260206004820152600f60248201526e24b73b30b634b21036b0b730b3b2b960891b6044820152606401620000c9565b6200012781620001ec565b6001600160a01b03848116608052600180546001600160a01b03191691851691909117905560056200015a83826200034f565b5050426004555050506001600160a01b038216620001bb5760405162461bcd60e51b815260206004820152601860248201527f496e76616c696420646f6e6174696f6e206164647265737300000000000000006044820152606401620000c9565b50600680546001600160a01b0319166001600160a01b03929092169190911790555050426008556200041b565b3390565b5f80546001600160a01b038381166001600160a01b0319831681178455604051919092169283917f8be0079c531659141344cd1fd0a4f28419497f9722a3daafe3b4186f6b6457e09190a35050565b80516001600160a01b038116811462000252575f80fd5b919050565b5f805f80608085870312156200026b575f80fd5b62000276856200023b565b935062000286602086016200023b565b925062000296604086016200023b565b9150620002a6606086016200023b565b905092959194509250565b634e487b7160e01b5f52604160045260245ffd5b600181811c90821680620002da57607f821691505b602082108103620002f957634e487b7160e01b5f52602260045260245ffd5b50919050565b601f8211156200034a57805f5260205f20601f840160051c81016020851015620003265750805b601f840160051c820191505b8181101562000347575f815560010162000332565b50505b505050565b81516001600160401b038111156200036b576200036b620002b1565b62000383816200037c8454620002c5565b84620002ff565b602080601f831160018114620003b9575f8415620003a15750858301515b5f19600386901b1c1916600185901b17855562000413565b5f85815260208120601f198616915b82811015620003e957888601518255948401946001909101908401620003c8565b50858210156200040757878501515f19600388901b60f8161c191681555b505060018460011b0185555b505050505050565b6080516113ab6200046c5f395f81816101ee0152818161036001528181610568015281816107490152818161082c015281816108d601528181610aa401528181610d880152610e4401526113ab5ff3fe608060405234801561000f575f80fd5b5060043610610187575f3560e01c806385e85586116100d9578063dbb0487311610093578063e8d991d11161006e578063e8d991d114610312578063ec034bed1461031a578063f2fde38b1461032d578063ff50abdc14610340575f80fd5b8063dbb04873146102fa578063dbcc6d0514610302578063e173ad251461030a575f80fd5b806385e855861461027b5780638da5cb5b14610284578063b594351f14610294578063b6b55f251461029d578063c59c77f3146102b0578063db2e21bc146102f2575f80fd5b806338d52e0f116101445780636f48e79b1161011f5780636f48e79b14610250578063715018a614610263578063722713f71461026b578063853828b614610273575f80fd5b806338d52e0f146101e957806339b70e38146102285780635c9666461461023b575f80fd5b806301e1d1141461018b57806306fdde03146101a65780631bfd9e67146101bb5780632257a738146101c457806322a6619e146101cd5780632e1a7d4d146101d6575b5f80fd5b610193610349565b6040519081526020015b60405180910390f35b6101ae6103e3565b60405161019d91906111da565b6101936101f481565b61019360045481565b61019360035481565b6101936101e436600461120c565b610473565b6102107f000000000000000000000000000000000000000000000000000000000000000081565b6040516001600160a01b03909116815260200161019d565b600154610210906001600160a01b031681565b61024e610249366004611223565b6105cb565b005b61024e61025e366004611223565b61063d565b61024e6106de565b6101936106f1565b6101936106fb565b61019360075481565b5f546001600160a01b0316610210565b61019360085481565b6101936102ab36600461120c565b6107ab565b6007546008546006546002546040805194855260208501939093526001600160a01b039091169183019190915260608201526101f4608082015260a00161019d565b61024e6108a0565b610193610933565b610193610984565b6101ae6109b0565b610193610a3c565b600654610210906001600160a01b031681565b61024e61033b366004611223565b610afd565b61019360025481565b6040516370a0823160e01b81523060048201525f907f00000000000000000000000000000000000000000000000000000000000000006001600160a01b0316906370a0823190602401602060405180830381865afa1580156103ad573d5f803e3d5ffd5b505050506040513d601f19601f820116820180604052508101906103d19190611250565b6002546103de919061127b565b905090565b6060600580546103f290611294565b80601f016020809104026020016040519081016040528092919081815260200182805461041e90611294565b80156104695780601f1061044057610100808354040283529160200191610469565b820191905f5260205f20905b81548152906001019060200180831161044c57829003601f168201915b5050505050905090565b6001545f906001600160a01b031633146104a85760405162461bcd60e51b815260040161049f906112cc565b60405180910390fd5b5f82116104ec5760405162461bcd60e51b81526020600482015260126024820152710416d6f756e74206d757374206265203e20360741b604482015260640161049f565b6002548211156105355760405162461bcd60e51b8152602060048201526014602482015273496e73756666696369656e742062616c616e636560601b604482015260640161049f565b5f61053f83610b76565b90508060025f82825461055291906112f2565b9091555050600154610591906001600160a01b037f00000000000000000000000000000000000000000000000000000000000000008116911683610bc4565b6040518181527f430648de173157e069201c943adb2d4e340e7cf5b27b1b09c9cb852f03d63b56906020015b60405180910390a192915050565b6105d3610c2c565b6001600160a01b03811661061b5760405162461bcd60e51b815260206004820152600f60248201526e496e76616c6964206164647265737360881b604482015260640161049f565b600180546001600160a01b0319166001600160a01b0392909216919091179055565b610645610c2c565b6001600160a01b03811661068d5760405162461bcd60e51b815260206004820152600f60248201526e496e76616c6964206164647265737360881b604482015260640161049f565b600680546001600160a01b038381166001600160a01b0319831681179093556040519116919082907f22bd1b7cff8b33eeb8a2c96d18acc52486d19a348350d627bb0be515464a7fed905f90a35050565b6106e6610c2c565b6106ef5f610c85565b565b5f6103de60025490565b6001545f906001600160a01b031633146107275760405162461bcd60e51b815260040161049f906112cc565b5f61073160025490565b5f600255600154909150610772906001600160a01b037f00000000000000000000000000000000000000000000000000000000000000008116911683610bc4565b6040518181527f430648de173157e069201c943adb2d4e340e7cf5b27b1b09c9cb852f03d63b56906020015b60405180910390a1905090565b6001545f906001600160a01b031633146107d75760405162461bcd60e51b815260040161049f906112cc565b5f821161081b5760405162461bcd60e51b81526020600482015260126024820152710416d6f756e74206d757374206265203e20360741b604482015260640161049f565b600154610856906001600160a01b037f0000000000000000000000000000000000000000000000000000000000000000811691163085610cd4565b5f8290508060025f82825461086b919061127b565b90915550506040518181527f2a89b2e3d580398d6dc2db5e0f336b52602bbaa51afa9bb5cdf59239cf0d2bea906020016105bd565b6108a8610c2c565b5f6108b260025490565b5f60025590506108fd6108cc5f546001600160a01b031690565b6001600160a01b037f0000000000000000000000000000000000000000000000000000000000000000169083610bc4565b6040518181527f99d7f8b71cfb9126984f7a5eed3a40e64a8959e9b0e442221546fb04ec6a489c9060200160405180910390a150565b5f6002545f0361094257505f90565b5f6004544261095191906112f2565b905064496cebb800816101f460025461096a9190611305565b6109749190611305565b61097e919061131c565b91505090565b5f6002545f0361099357505f90565b6127106101f46002546109a69190611305565b6103de919061131c565b600580546109bd90611294565b80601f01602080910402602001604051908101604052809291908181526020018280546109e990611294565b8015610a345780601f10610a0b57610100808354040283529160200191610a34565b820191905f5260205f20905b815481529060010190602001808311610a1757829003601f168201915b505050505081565b6001545f906001600160a01b03163314610a685760405162461bcd60e51b815260040161049f906112cc565b5f610a71610d12565b905080156103de578060035f828254610a8a919061127b565b909155505042600455600154610acd906001600160a01b037f00000000000000000000000000000000000000000000000000000000000000008116911683610bc4565b6040518181527feb2d114a827fe0da3db4c0e374010959cf461f7ed76987aeff51666dea9add9b9060200161079e565b610b05610c2c565b6001600160a01b038116610b6a5760405162461bcd60e51b815260206004820152602660248201527f4f776e61626c653a206e6577206f776e657220697320746865207a65726f206160448201526564647265737360d01b606482015260840161049f565b610b7381610c85565b50565b5f600254821115610bc05760405162461bcd60e51b8152602060048201526014602482015273496e73756666696369656e742062616c616e636560601b604482015260640161049f565b5090565b6040516001600160a01b038316602482015260448101829052610c2790849063a9059cbb60e01b906064015b60408051601f198184030181529190526020810180516001600160e01b03166001600160e01b031990931692909217909152610f5b565b505050565b5f546001600160a01b031633146106ef5760405162461bcd60e51b815260206004820181905260248201527f4f776e61626c653a2063616c6c6572206973206e6f7420746865206f776e6572604482015260640161049f565b5f80546001600160a01b038381166001600160a01b0319831681178455604051919092169283917f8be0079c531659141344cd1fd0a4f28419497f9722a3daafe3b4186f6b6457e09190a35050565b6040516001600160a01b0380851660248301528316604482015260648101829052610d0c9085906323b872dd60e01b90608401610bf0565b50505050565b5f8060045442610d2291906112f2565b9050801580610d315750600254155b15610d3d575f91505090565b5f64496cebb800826101f4600254610d559190611305565b610d5f9190611305565b610d69919061131c565b90508015610f53576040516370a0823160e01b81523060048201525f907f00000000000000000000000000000000000000000000000000000000000000006001600160a01b0316906370a0823190602401602060405180830381865afa158015610dd5573d5f803e3d5ffd5b505050506040513d601f19601f82011682018060405250810190610df99190611250565b90505f6002548211610e0b575f610e18565b600254610e1890836112f2565b90508015610ee0575f818410610e2e5781610e30565b835b600654909150610e6d906001600160a01b037f00000000000000000000000000000000000000000000000000000000000000008116911683610bc4565b8060075f828254610e7e919061127b565b90915550504260088190556006546040516001600160a01b03909116917fdb76c2f65a826be24c5db36ed4e02c8cfa01cea5cd8d562570d19d6f1816b15191610ecf91858252602082015260400190565b60405180910390a295945050505050565b8260075f828254610ef1919061127b565b90915550504260088190556006546040516001600160a01b03909116917fdb76c2f65a826be24c5db36ed4e02c8cfa01cea5cd8d562570d19d6f1816b15191610f4291878252602082015260400190565b60405180910390a250909392505050565b5f9250505090565b5f610faf826040518060400160405280602081526020017f5361666545524332303a206c6f772d6c6576656c2063616c6c206661696c6564815250856001600160a01b031661102e9092919063ffffffff16565b905080515f1480610fcf575080806020019051810190610fcf919061133b565b610c275760405162461bcd60e51b815260206004820152602a60248201527f5361666545524332303a204552433230206f7065726174696f6e20646964206e6044820152691bdd081cdd58d8d9595960b21b606482015260840161049f565b606061103c84845f85611044565b949350505050565b6060824710156110a55760405162461bcd60e51b815260206004820152602660248201527f416464726573733a20696e73756666696369656e742062616c616e636520666f6044820152651c8818d85b1b60d21b606482015260840161049f565b5f80866001600160a01b031685876040516110c0919061135a565b5f6040518083038185875af1925050503d805f81146110fa576040519150601f19603f3d011682016040523d82523d5f602084013e6110ff565b606091505b50915091506111108783838761111b565b979650505050505050565b606083156111895782515f03611182576001600160a01b0385163b6111825760405162461bcd60e51b815260206004820152601d60248201527f416464726573733a2063616c6c20746f206e6f6e2d636f6e7472616374000000604482015260640161049f565b508161103c565b61103c838381511561119e5781518083602001fd5b8060405162461bcd60e51b815260040161049f91906111da565b5f5b838110156111d25781810151838201526020016111ba565b50505f910152565b602081525f82518060208401526111f88160408501602087016111b8565b601f01601f19169190910160400192915050565b5f6020828403121561121c575f80fd5b5035919050565b5f60208284031215611233575f80fd5b81356001600160a01b0381168114611249575f80fd5b9392505050565b5f60208284031215611260575f80fd5b5051919050565b634e487b7160e01b5f52601160045260245ffd5b8082018082111561128e5761128e611267565b92915050565b600181811c908216806112a857607f821691505b6020821081036112c657634e487b7160e01b5f52602260045260245ffd5b50919050565b6020808252600c908201526b27b7363c9036b0b730b3b2b960a11b604082015260600190565b8181038181111561128e5761128e611267565b808202811582820484141761128e5761128e611267565b5f8261133657634e487b7160e01b5f52601260045260245ffd5b500490565b5f6020828403121561134b575f80fd5b81518015158114611249575f80fd5b5f825161136b8184602087016111b8565b919091019291505056fea2646970667358221220332446d27ca9892ada702f92f068055155923dc67eb419224fd4dfce9452a47964736f6c63430008180033","linkReferences":{}},"methodIdentifiers":{"MOCK_APY()":"1bfd9e67","asset()":"38d52e0f","balanceOf()":"722713f7","deposit(uint256)":"b6b55f25","donationAddress()":"ec034bed","emergencyWithdraw()":"db2e21bc","expectedYearlyDonation()":"dbcc6d05","getYieldStats()":"c59c77f3","harvestYield()":"e8d991d1","lastDonationTimestamp()":"b594351f","lastHarvestTimestamp()":"2257a738","name()":"06fdde03","owner()":"8da5cb5b","pendingYield()":"dbb04873","renounceOwnership()":"715018a6","setDonationAddress(address)":"6f48e79b","setStrategyManager(address)":"5c966646","strategyManager()":"39b70e38","strategyName()":"e173ad25","totalAssets()":"01e1d114","totalDeposited()":"ff50abdc","totalYieldDonated()":"85e85586","totalYieldHarvested()":"22a6619e","transferOwnership(address)":"f2fde38b","withdraw(uint256)":"2e1a7d4d","withdrawAll()":"853828b6"},"id":28}