{"abi":[{"type":"constructor","inputs":[{"name":"_initialOwner","type":"address","internalType":"address"}],"stateMutability":"nonpayable"},{"type":"function","name":"addMinter","inputs":[{"name":"minter","type":"address","internalType":"address"}],"outputs":[],"stateMutability":"nonpayable"},{"type":"function","name":"approve","inputs":[{"name":"to","type":"address","internalType":"address"},{"name":"tokenId","type":"uint256","internalType":"uint256"}],"outputs":[],"stateMutability":"nonpayable"},{"type":"function","name":"balanceOf","inputs":[{"name":"owner","type":"address","internalType":"address"}],"outputs":[{"name":"","type":"uint256","internalType":"uint256"}],"stateMutability":"view"},{"type":"function","name":"batchMintLessons","inputs":[{"name":"user","type":"address","internalType":"address"},{"name":"lessonNames","type":"string[]","internalType":"string[]"},{"name":"concepts","type":"string[]","internalType":"string[]"},{"name":"difficulties","type":"uint8[]","internalType":"enum EntiendeNFT.Difficulty[]"}],"outputs":[{"name":"","type":"uint256[]","internalType":"uint256[]"}],"stateMutability":"nonpayable"},{"type":"function","name":"completeQuiz","inputs":[{"name":"tokenId","type":"uint256","internalType":"uint256"},{"name":"score","type":"uint256","internalType":"uint256"}],"outputs":[],"stateMutability":"nonpayable"},{"type":"function","name":"exists","inputs":[{"name":"tokenId","type":"uint256","internalType":"uint256"}],"outputs":[{"name":"","type":"bool","internalType":"bool"}],"stateMutability":"view"},{"type":"function","name":"getApproved","inputs":[{"name":"tokenId","type":"uint256","internalType":"uint256"}],"outputs":[{"name":"","type":"address","internalType":"address"}],"stateMutability":"view"},{"type":"function","name":"getLessonData","inputs":[{"name":"tokenId","type":"uint256","internalType":"uint256"}],"outputs":[{"name":"lessonName","type":"string","internalType":"string"},{"name":"conceptExplained","type":"string","internalType":"string"},{"name":"difficulty","type":"uint8","internalType":"enum EntiendeNFT.Difficulty"},{"name":"timestamp","type":"uint256","internalType":"uint256"},{"name":"quizCompleted","type":"bool","internalType":"bool"},{"name":"score","type":"uint256","internalType":"uint256"}],"stateMutability":"view"},{"type":"function","name":"getUserLessons","inputs":[{"name":"user","type":"address","internalType":"address"}],"outputs":[{"name":"","type":"uint256[]","internalType":"uint256[]"}],"stateMutability":"view"},{"type":"function","name":"getUserProgress","inputs":[{"name":"user","type":"address","internalType":"address"}],"outputs":[{"name":"beginnerCount","type":"uint256","internalType":"uint256"},{"name":"intermediateCount","type":"uint256","internalType":"uint256"},{"name":"advancedCount","type":"uint256","internalType":"uint256"},{"name":"quizzesCompleted","type":"uint256","internalType":"uint256"},{"name":"averageScore","type":"uint256","internalType":"uint256"}],"stateMutability":"view"},{"type":"function","name":"hasCompletedLesson","inputs":[{"name":"user","type":"address","internalType":"address"},{"name":"lessonName","type":"string","internalType":"string"}],"outputs":[{"name":"","type":"bool","internalType":"bool"}],"stateMutability":"view"},{"type":"function","name":"isApprovedForAll","inputs":[{"name":"owner","type":"address","internalType":"address"},{"name":"operator","type":"address","internalType":"address"}],"outputs":[{"name":"","type":"bool","internalType":"bool"}],"stateMutability":"view"},{"type":"function","name":"lessonData","inputs":[{"name":"","type":"uint256","internalType":"uint256"}],"outputs":[{"name":"lessonName","type":"string","internalType":"string"},{"name":"conceptExplained","type":"string","internalType":"string"},{"name":"difficulty","type":"uint8","internalType":"enum EntiendeNFT.Difficulty"},{"name":"timestamp","type":"uint256","internalType":"uint256"},{"name":"quizCompleted","type":"bool","internalType":"bool"},{"name":"score","type":"uint256","internalType":"uint256"}],"stateMutability":"view"},{"type":"function","name":"mintLessonNFT","inputs":[{"name":"user","type":"address","internalType":"address"},{"name":"lessonName","type":"string","internalType":"string"},{"name":"conceptExplained","type":"string","internalType":"string"},{"name":"difficulty","type":"uint8","internalType":"enum EntiendeNFT.Difficulty"}],"outputs":[{"name":"","type":"uint256","internalType":"uint256"}],"stateMutability":"nonpayable"},{"type":"function","name":"minters","inputs":[{"name":"","type":"address","internalType":"address"}],"outputs":[{"name":"","type":"bool","internalType":"bool"}],"stateMutability":"view"},{"type":"function","name":"name","inputs":[],"outputs":[{"name":"","type":"string","internalType":"string"}],"stateMutability":"view"},{"type":"function","name":"owner","inputs":[],"outputs":[{"name":"","type":"address","internalType":"address"}],"stateMutability":"view"},{"type":"function","name":"ownerOf","inputs":[{"name":"tokenId","type":"uint256","internalType":"uint256"}],"outputs":[{"name":"","type":"address","internalType":"address"}],"stateMutability":"view"},{"type":"function","name":"removeMinter","inputs":[{"name":"minter","type":"address","internalType":"address"}],"outputs":[],"stateMutability":"nonpayable"},{"type":"function","name":"renounceOwnership","inputs":[],"outputs":[],"stateMutability":"nonpayable"},{"type":"function","name":"safeTransferFrom","inputs":[{"name":"from","type":"address","internalType":"address"},{"name":"to","type":"address","internalType":"address"},{"name":"tokenId","type":"uint256","internalType":"uint256"}],"outputs":[],"stateMutability":"nonpayable"},{"type":"function","name":"safeTransferFrom","inputs":[{"name":"from","type":"address","internalType":"address"},{"name":"to","type":"address","internalType":"address"},{"name":"tokenId","type":"uint256","internalType":"uint256"},{"name":"data","type":"bytes","internalType":"bytes"}],"outputs":[],"stateMutability":"nonpayable"},{"type":"function","name":"setApprovalForAll","inputs":[{"name":"operator","type":"address","internalType":"address"},{"name":"approved","type":"bool","internalType":"bool"}],"outputs":[],"stateMutability":"nonpayable"},{"type":"function","name":"setBaseURI","inputs":[{"name":"baseURI","type":"string","internalType":"string"}],"outputs":[],"stateMutability":"nonpayable"},{"type":"function","name":"setTransfersEnabled","inputs":[{"name":"enabled","type":"bool","internalType":"bool"}],"outputs":[],"stateMutability":"nonpayable"},{"type":"function","name":"supportsInterface","inputs":[{"name":"interfaceId","type":"bytes4","internalType":"bytes4"}],"outputs":[{"name":"","type":"bool","internalType":"bool"}],"stateMutability":"view"},{"type":"function","name":"symbol","inputs":[],"outputs":[{"name":"","type":"string","internalType":"string"}],"stateMutability":"view"},{"type":"function","name":"tokenByIndex","inputs":[{"name":"index","type":"uint256","internalType":"uint256"}],"outputs":[{"name":"","type":"uint256","internalType":"uint256"}],"stateMutability":"view"},{"type":"function","name":"tokenOfOwnerByIndex","inputs":[{"name":"owner","type":"address","internalType":"address"},{"name":"index","type":"uint256","internalType":"uint256"}],"outputs":[{"name":"","type":"uint256","internalType":"uint256"}],"stateMutability":"view"},{"type":"function","name":"tokenURI","inputs":[{"name":"tokenId","type":"uint256","internalType":"uint256"}],"outputs":[{"name":"","type":"string","internalType":"string"}],"stateMutability":"view"},{"type":"function","name":"totalSupply","inputs":[],"outputs":[{"name":"","type":"uint256","internalType":"uint256"}],"stateMutability":"view"},{"type":"function","name":"transferFrom","inputs":[{"name":"from","type":"address","internalType":"address"},{"name":"to","type":"address","internalType":"address"},{"name":"tokenId","type":"uint256","internalType":"uint256"}],"outputs":[],"stateMutability":"nonpayable"},{"type":"function","name":"transferOwnership","inputs":[{"name":"newOwner","type":"address","internalType":"address"}],"outputs":[],"stateMutability":"nonpayable"},{"type":"function","name":"transfersEnabled","inputs":[],"outputs":[{"name":"","type":"bool","internalType":"bool"}],"stateMutability":"view"},{"type":"function","name":"userNFTs","inputs":[{"name":"","type":"address","internalType":"address"},{"name":"","type":"uint256","internalType":"uint256"}],"outputs":[{"name":"","type":"uint256","internalType":"uint256"}],"stateMutability":"view"},{"type":"event","name":"Approval","inputs":[{"name":"owner","type":"address","indexed":true,"internalType":"address"},{"name":"approved","type":"address","indexed":true,"internalType":"address"},{"name":"tokenId","type":"uint256","indexed":true,"internalType":"uint256"}],"anonymous":false},{"type":"event","name":"ApprovalForAll","inputs":[{"name":"owner","type":"address","indexed":true,"internalType":"address"},{"name":"operator","type":"address","indexed":true,"internalType":"address"},{"name":"approved","type":"bool","indexed":false,"internalType":"bool"}],"anonymous":false},{"type":"event","name":"LessonNFTMinted","inputs":[{"name":"user","type":"address","indexed":true,"internalType":"address"},{"name":"tokenId","type":"uint256","indexed":true,"internalType":"uint256"},{"name":"lessonName","type":"string","indexed":false,"internalType":"string"},{"name":"difficulty","type":"uint8","indexed":false,"internalType":"enum EntiendeNFT.Difficulty"}],"anonymous":false},{"type":"event","name":"MinterAdded","inputs":[{"name":"minter","type":"address","indexed":true,"internalType":"address"}],"anonymous":false},{"type":"event","name":"MinterRemoved","inputs":[{"name":"minter","type":"address","indexed":true,"internalType":"address"}],"anonymous":false},{"type":"event","name":"OwnershipTransferred","inputs":[{"name":"previousOwner","type":"address","indexed":true,"internalType":"address"},{"name":"newOwner","type":"address","indexed":true,"internalType":"address"}],"anonymous":false},{"type":"event","name":"QuizCompleted","inputs":[{"name":"user","type":"address","indexed":true,"internalType":"address"},{"name":"tokenId","type":"uint256","indexed":true,"internalType":"uint256"},{"name":"score","type":"uint256","indexed":false,"internalType":"uint256"}],"anonymous":false},{"type":"event","name":"Transfer","inputs":[{"name":"from","type":"address","indexed":true,"internalType":"address"},{"name":"to","type":"address","indexed":true,"internalType":"address"},{"name":"tokenId","type":"uint256","indexed":true,"internalType":"uint256"}],"anonymous":false}],"bytecode":{"object":"0x6080604052600f805460ff191690553480156200001a575f80fd5b506040516200327c3803806200327c8339810160408190526200003d9162000134565b6040518060400160405280601981526020017f4465466920456e7469656e646f20416368696576656d656e740000000000000081525060405180604001604052806005815260200164444546494160d81b815250815f9081620000a1919062000201565b506001620000b0828262000201565b505050620000cd620000c7620000df60201b60201c565b620000e3565b620000d881620000e3565b50620002cd565b3390565b600a80546001600160a01b038381166001600160a01b0319831681179093556040519116919082907f8be0079c531659141344cd1fd0a4f28419497f9722a3daafe3b4186f6b6457e0905f90a35050565b5f6020828403121562000145575f80fd5b81516001600160a01b03811681146200015c575f80fd5b9392505050565b634e487b7160e01b5f52604160045260245ffd5b600181811c908216806200018c57607f821691505b602082108103620001ab57634e487b7160e01b5f52602260045260245ffd5b50919050565b601f821115620001fc57805f5260205f20601f840160051c81016020851015620001d85750805b601f840160051c820191505b81811015620001f9575f8155600101620001e4565b50505b505050565b81516001600160401b038111156200021d576200021d62000163565b62000235816200022e845462000177565b84620001b1565b602080601f8311600181146200026b575f8415620002535750858301515b5f19600386901b1c1916600185901b178555620002c5565b5f85815260208120601f198616915b828110156200029b578886015182559484019460019091019084016200027a565b5085821015620002b957878501515f19600388901b60f8161c191681555b505060018460011b0185555b505050505050565b612fa180620002db5f395ff3fe608060405234801561000f575f80fd5b5060043610610208575f3560e01c80636352211e1161011f578063a22cb465116100a9578063e985e9c511610079578063e985e9c51461049f578063f2fde38b146104da578063f46eccc4146104ed578063f7773eb81461050f578063fe28b78814610522575f80fd5b8063a22cb46514610459578063b88d4fde1461046c578063bef97c871461047f578063c87b56dd1461048c575f80fd5b8063843d734c116100ef578063843d734c146103cd5780638da5cb5b146103f25780638e4cc1081461040357806395d89b411461043e578063983b2d5614610446575f80fd5b80636352211e1461038c578063705543c41461039f57806370a08231146103b2578063715018a6146103c5575f80fd5b8063291c73c3116101a057806339a828db1161017057806339a828db1461032d57806342842e0e146103405780634f558e79146103535780634f6ccce71461036657806355f804b314610379575f80fd5b8063291c73c3146102e15780632f745c59146102f45780633092afd51461030757806330b7240b1461031a575f80fd5b8063095ea7b3116101db578063095ea7b31461029457806318160ddd146102a957806323b872dd146102bb57806326b9ce13146102ce575f80fd5b806301ffc9a71461020c57806306fdde0314610234578063070e763514610249578063081812fc14610269575b5f80fd5b61021f61021a366004612508565b610535565b60405190151581526020015b60405180910390f35b61023c610545565b60405161022b9190612570565b61025c610257366004612711565b6105d4565b60405161022b91906127fd565b61027c610277366004612840565b610753565b6040516001600160a01b03909116815260200161022b565b6102a76102a2366004612857565b610778565b005b6008545b60405190815260200161022b565b6102a76102c936600461287f565b61088c565b6102a76102dc3660046128c7565b6108bd565b6102ad6102ef366004612857565b6108d8565b6102ad610302366004612857565b610903565b6102a76103153660046128e0565b610997565b61021f6103283660046128f9565b6109e7565b61025c61033b3660046128e0565b610abe565b6102a761034e36600461287f565b610b27565b61021f610361366004612840565b610b41565b6102ad610374366004612840565b610b4b565b6102a7610387366004612944565b610bdb565b61027c61039a366004612840565b610bf3565b6102a76103ad366004612976565b610c52565b6102ad6103c03660046128e0565b610ded565b6102a7610e71565b6103e06103db366004612840565b610e84565b60405161022b969594939291906129ca565b600a546001600160a01b031661027c565b6104166104113660046128e0565b610fcc565b604080519586526020860194909452928401919091526060830152608082015260a00161022b565b61023c6112c8565b6102a76104543660046128e0565b6112d7565b6102a7610467366004612a1b565b611372565b6102a761047a366004612a4c565b61137d565b600f5461021f9060ff1681565b61023c61049a366004612840565b6113b5565b61021f6104ad366004612ac3565b6001600160a01b039182165f90815260056020908152604080832093909416825291909152205460ff1690565b6102a76104e83660046128e0565b611419565b61021f6104fb3660046128e0565b600e6020525f908152604090205460ff1681565b6103e061051d366004612840565b611492565b6102ad610530366004612aeb565b6116a8565b5f61053f82611700565b92915050565b60605f805461055390612b6b565b80601f016020809104026020016040519081016040528092919081815260200182805461057f90612b6b565b80156105ca5780601f106105a1576101008083540402835291602001916105ca565b820191905f5260205f20905b8154815290600101906020018083116105ad57829003601f168201915b5050505050905090565b335f908152600e602052604090205460609060ff16806105fe5750600a546001600160a01b031633145b6106235760405162461bcd60e51b815260040161061a90612ba3565b60405180910390fd5b82518451148015610635575081518351145b6106795760405162461bcd60e51b8152602060048201526015602482015274082e4e4c2f240d8cadccee8d040dad2e6dac2e8c6d605b1b604482015260640161061a565b5f845167ffffffffffffffff8111156106945761069461259d565b6040519080825280602002602001820160405280156106bd578160200160208202803683370190505b5090505f5b855181101561074757610722878783815181106106e1576106e1612bd2565b60200260200101518784815181106106fb576106fb612bd2565b602002602001015187858151811061071557610715612bd2565b6020026020010151611724565b82828151811061073457610734612bd2565b60209081029190910101526001016106c2565b5090505b949350505050565b5f61075d826118ca565b505f908152600460205260409020546001600160a01b031690565b5f61078282610bf3565b9050806001600160a01b0316836001600160a01b0316036107ef5760405162461bcd60e51b815260206004820152602160248201527f4552433732313a20617070726f76616c20746f2063757272656e74206f776e656044820152603960f91b606482015260840161061a565b336001600160a01b038216148061080b575061080b81336104ad565b61087d5760405162461bcd60e51b815260206004820152603d60248201527f4552433732313a20617070726f76652063616c6c6572206973206e6f7420746f60448201527f6b656e206f776e6572206f7220617070726f76656420666f7220616c6c000000606482015260840161061a565b610887838361191a565b505050565b6108963382611987565b6108b25760405162461bcd60e51b815260040161061a90612be6565b610887838383611a03565b6108c5611b72565b600f805460ff1916911515919091179055565b600d602052815f5260405f2081815481106108f1575f80fd5b905f5260205f20015f91509150505481565b5f61090d83610ded565b821061096f5760405162461bcd60e51b815260206004820152602b60248201527f455243373231456e756d657261626c653a206f776e657220696e646578206f7560448201526a74206f6620626f756e647360a81b606482015260840161061a565b506001600160a01b03919091165f908152600660209081526040808320938352929052205490565b61099f611b72565b6001600160a01b0381165f818152600e6020526040808220805460ff19169055517fe94479a9f7e1952cc78f2d6baab678adc1b772d936c6583def489e524cb666929190a250565b6001600160a01b0382165f908152600d6020908152604080832080548251818502810185019093528083528493830182828015610a4157602002820191905f5260205f20905b815481526020019060010190808311610a2d575b505050505090505f5b8151811015610ab4578380519060200120600c5f848481518110610a7057610a70612bd2565b602002602001015181526020019081526020015f205f01604051610a949190612c33565b604051809103902003610aac5760019250505061053f565b600101610a4a565b505f949350505050565b6001600160a01b0381165f908152600d6020908152604091829020805483518184028101840190945280845260609392830182828015610b1b57602002820191905f5260205f20905b815481526020019060010190808311610b07575b50505050509050919050565b61088783838360405180602001604052805f81525061137d565b5f61053f82611bcc565b5f610b5560085490565b8210610bb85760405162461bcd60e51b815260206004820152602c60248201527f455243373231456e756d657261626c653a20676c6f62616c20696e646578206f60448201526b7574206f6620626f756e647360a01b606482015260840161061a565b60088281548110610bcb57610bcb612bd2565b905f5260205f2001549050919050565b610be3611b72565b6010610bef8282612ce9565b5050565b5f818152600260205260408120546001600160a01b03168061053f5760405162461bcd60e51b8152602060048201526018602482015277115490cdcc8c4e881a5b9d985b1a59081d1bdad95b88125160421b604482015260640161061a565b335f908152600e602052604090205460ff1680610c795750600a546001600160a01b031633145b610c955760405162461bcd60e51b815260040161061a90612ba3565b610c9e82611bcc565b610ce05760405162461bcd60e51b8152602060048201526013602482015272151bdad95b88191bd95cdb89dd08195e1a5cdd606a1b604482015260640161061a565b6064811115610d215760405162461bcd60e51b815260206004820152600d60248201526c496e76616c69642073636f726560981b604482015260640161061a565b5f828152600c602052604090206004015460ff1615610d7b5760405162461bcd60e51b8152602060048201526016602482015275145d5a5e88185b1c9958591e4818dbdb5c1b195d195960521b604482015260640161061a565b5f828152600c6020526040902060048101805460ff1916600117905560050181905581610da781610bf3565b6001600160a01b03167fb19db0da2fcbedc9057d111843a97780e1d3334a38f64062e8f5f5871544379f83604051610de191815260200190565b60405180910390a35050565b5f6001600160a01b038216610e565760405162461bcd60e51b815260206004820152602960248201527f4552433732313a2061646472657373207a65726f206973206e6f7420612076616044820152683634b21037bbb732b960b91b606482015260840161061a565b506001600160a01b03165f9081526003602052604090205490565b610e79611b72565b610e825f611be8565b565b600c6020525f9081526040902080548190610e9e90612b6b565b80601f0160208091040260200160405190810160405280929190818152602001828054610eca90612b6b565b8015610f155780601f10610eec57610100808354040283529160200191610f15565b820191905f5260205f20905b815481529060010190602001808311610ef857829003601f168201915b505050505090806001018054610f2a90612b6b565b80601f0160208091040260200160405190810160405280929190818152602001828054610f5690612b6b565b8015610fa15780601f10610f7857610100808354040283529160200191610fa1565b820191905f5260205f20905b815481529060010190602001808311610f8457829003601f168201915b505050600284015460038501546004860154600590960154949560ff92831695919450909116915086565b6001600160a01b0381165f908152600d6020908152604080832080548251818502810185019093528083528493849384938493849383018282801561102e57602002820191905f5260205f20905b81548152602001906001019080831161101a575b505050505090505f805b82518110156112a9575f600c5f85848151811061105757611057612bd2565b602002602001015181526020019081526020015f206040518060c00160405290815f8201805461108690612b6b565b80601f01602080910402602001604051908101604052809291908181526020018280546110b290612b6b565b80156110fd5780601f106110d4576101008083540402835291602001916110fd565b820191905f5260205f20905b8154815290600101906020018083116110e057829003601f168201915b5050505050815260200160018201805461111690612b6b565b80601f016020809104026020016040519081016040528092919081815260200182805461114290612b6b565b801561118d5780601f106111645761010080835404028352916020019161118d565b820191905f5260205f20905b81548152906001019060200180831161117057829003601f168201915b505050918352505060028281015460209092019160ff16908111156111b4576111b4612996565b60028111156111c5576111c5612996565b815260038201546020820152600482015460ff161515604082015260059091015460609091015290505f8160400151600281111561120557611205612996565b0361121c578861121481612dbd565b995050611276565b60018160400151600281111561123457611234612996565b0361124b578761124381612dbd565b985050611276565b60028160400151600281111561126357611263612996565b03611276578661127281612dbd565b9750505b8060800151156112a0578561128a81612dbd565b9650508060a001518361129d9190612dd5565b92505b50600101611038565b5083156112bd576112ba8482612de8565b92505b505091939590929450565b60606001805461055390612b6b565b6112df611b72565b6001600160a01b0381166113275760405162461bcd60e51b815260206004820152600f60248201526e496e76616c6964206164647265737360881b604482015260640161061a565b6001600160a01b0381165f818152600e6020526040808220805460ff19166001179055517f6ae172837ea30b801fbfcdd4108aa1d5bf8ff775444fd70256b44e6bf3dfc3f69190a250565b610bef338383611c39565b6113873383611987565b6113a35760405162461bcd60e51b815260040161061a90612be6565b6113af84848484611d06565b50505050565b60606113c0826118ca565b5f6113c9611d39565b90505f8151116113e75760405180602001604052805f815250611412565b806113f184611d48565b604051602001611402929190612e07565b6040516020818303038152906040525b9392505050565b611421611b72565b6001600160a01b0381166114865760405162461bcd60e51b815260206004820152602660248201527f4f776e61626c653a206e6577206f776e657220697320746865207a65726f206160448201526564647265737360d01b606482015260840161061a565b61148f81611be8565b50565b6060805f805f806114a287611bcc565b6114e45760405162461bcd60e51b8152602060048201526013602482015272151bdad95b88191bd95cdb89dd08195e1a5cdd606a1b604482015260640161061a565b5f878152600c6020526040808220815160c0810190925280548290829061150a90612b6b565b80601f016020809104026020016040519081016040528092919081815260200182805461153690612b6b565b80156115815780601f1061155857610100808354040283529160200191611581565b820191905f5260205f20905b81548152906001019060200180831161156457829003601f168201915b5050505050815260200160018201805461159a90612b6b565b80601f01602080910402602001604051908101604052809291908181526020018280546115c690612b6b565b80156116115780601f106115e857610100808354040283529160200191611611565b820191905f5260205f20905b8154815290600101906020018083116115f457829003601f168201915b505050918352505060028281015460209092019160ff169081111561163857611638612996565b600281111561164957611649612996565b81526003820154602080830191909152600483015460ff1615156040808401919091526005909301546060928301528351908401519284015191840151608085015160a090950151919d939c50919a5090985091965090945092505050565b335f908152600e602052604081205460ff16806116cf5750600a546001600160a01b031633145b6116eb5760405162461bcd60e51b815260040161061a90612ba3565b6116f785858585611724565b95945050505050565b5f6001600160e01b0319821663780e9d6360e01b148061053f575061053f82611dd8565b5f6001600160a01b03851661176a5760405162461bcd60e51b815260206004820152600c60248201526b24b73b30b634b2103ab9b2b960a11b604482015260640161061a565b600b80545f918261177a83612dbd565b91905055905061178a8682611e27565b6040518060c001604052808681526020018581526020018460028111156117b3576117b3612996565b8152426020808301919091525f60408084018290526060909301819052848152600c90915220815181906117e79082612ce9565b50602082015160018201906117fc9082612ce9565b506040820151816002015f6101000a81548160ff0219169083600281111561182657611826612996565b021790555060608201516003820155608082015160048201805460ff191691151591909117905560a0909101516005909101556001600160a01b0386165f818152600d6020908152604080832080546001810182559084529190922001839055518291907f8a4808623765b3237b3d3193d16ab6c470249819fb80e3bb62f990a20134c25c906118b99089908890612e35565b60405180910390a395945050505050565b6118d381611bcc565b61148f5760405162461bcd60e51b8152602060048201526018602482015277115490cdcc8c4e881a5b9d985b1a59081d1bdad95b88125160421b604482015260640161061a565b5f81815260046020526040902080546001600160a01b0319166001600160a01b038416908117909155819061194e82610bf3565b6001600160a01b03167f8c5be1e5ebec7d5bd14f71427d1e84f3dd0314c0f7b2291e5b200ac8c7c3b92560405160405180910390a45050565b5f8061199283610bf3565b9050806001600160a01b0316846001600160a01b031614806119d857506001600160a01b038082165f9081526005602090815260408083209388168352929052205460ff165b8061074b5750836001600160a01b03166119f184610753565b6001600160a01b031614949350505050565b826001600160a01b0316611a1682610bf3565b6001600160a01b031614611a3c5760405162461bcd60e51b815260040161061a90612e56565b6001600160a01b038216611a9e5760405162461bcd60e51b8152602060048201526024808201527f4552433732313a207472616e7366657220746f20746865207a65726f206164646044820152637265737360e01b606482015260840161061a565b611aab8383836001611e40565b826001600160a01b0316611abe82610bf3565b6001600160a01b031614611ae45760405162461bcd60e51b815260040161061a90612e56565b5f81815260046020908152604080832080546001600160a01b03199081169091556001600160a01b038781168086526003855283862080545f1901905590871680865283862080546001019055868652600290945282852080549092168417909155905184937fddf252ad1be2c89b69c2b068fc378daa952ba7f163c4a11628f55a4df523b3ef91a4505050565b600a546001600160a01b03163314610e825760405162461bcd60e51b815260206004820181905260248201527f4f776e61626c653a2063616c6c6572206973206e6f7420746865206f776e6572604482015260640161061a565b5f908152600260205260409020546001600160a01b0316151590565b600a80546001600160a01b038381166001600160a01b0319831681179093556040519116919082907f8be0079c531659141344cd1fd0a4f28419497f9722a3daafe3b4186f6b6457e0905f90a35050565b816001600160a01b0316836001600160a01b031603611c9a5760405162461bcd60e51b815260206004820152601960248201527f4552433732313a20617070726f766520746f2063616c6c657200000000000000604482015260640161061a565b6001600160a01b038381165f81815260056020908152604080832094871680845294825291829020805460ff191686151590811790915591519182527f17307eab39ab6107e8899845ad3d59bd9653f200f220920489ca2b5937696c31910160405180910390a3505050565b611d11848484611a03565b611d1d84848484611ec2565b6113af5760405162461bcd60e51b815260040161061a90612e9b565b60606010805461055390612b6b565b60605f611d5483611fbc565b60010190505f8167ffffffffffffffff811115611d7357611d7361259d565b6040519080825280601f01601f191660200182016040528015611d9d576020820181803683370190505b5090508181016020015b5f19016f181899199a1a9b1b9c1cb0b131b232b360811b600a86061a8153600a8504945084611da757509392505050565b5f6001600160e01b031982166380ac58cd60e01b1480611e0857506001600160e01b03198216635b5e139f60e01b145b8061053f57506301ffc9a760e01b6001600160e01b031983161461053f565b610bef828260405180602001604052805f815250612093565b6001600160a01b0384161580611e5d57506001600160a01b038316155b80611e6a5750600f5460ff165b611eb65760405162461bcd60e51b815260206004820152601d60248201527f536f756c626f756e643a207472616e73666572732064697361626c6564000000604482015260640161061a565b6113af848484846120c5565b5f6001600160a01b0384163b15611fb457604051630a85bd0160e11b81526001600160a01b0385169063150b7a0290611f05903390899088908890600401612eed565b6020604051808303815f875af1925050508015611f3f575060408051601f3d908101601f19168201909252611f3c91810190612f29565b60015b611f9a573d808015611f6c576040519150601f19603f3d011682016040523d82523d5f602084013e611f71565b606091505b5080515f03611f925760405162461bcd60e51b815260040161061a90612e9b565b805181602001fd5b6001600160e01b031916630a85bd0160e11b14905061074b565b50600161074b565b5f8072184f03e93ff9f4daa797ed6e38ed64bf6a1f0160401b8310611ffa5772184f03e93ff9f4daa797ed6e38ed64bf6a1f0160401b830492506040015b6d04ee2d6d415b85acef81000000008310612026576d04ee2d6d415b85acef8100000000830492506020015b662386f26fc10000831061204457662386f26fc10000830492506010015b6305f5e100831061205c576305f5e100830492506008015b612710831061207057612710830492506004015b60648310612082576064830492506002015b600a831061053f5760010192915050565b61209d83836121f8565b6120a95f848484611ec2565b6108875760405162461bcd60e51b815260040161061a90612e9b565b60018111156121345760405162461bcd60e51b815260206004820152603560248201527f455243373231456e756d657261626c653a20636f6e7365637574697665207472604482015274185b9cd9995c9cc81b9bdd081cdd5c1c1bdc9d1959605a1b606482015260840161061a565b816001600160a01b03851661218f5761218a81600880545f838152600960205260408120829055600182018355919091527ff3f7a9fe364faab93b216da50a3214154f22a0a2b415b23a84c8169e8b636ee30155565b6121b2565b836001600160a01b0316856001600160a01b0316146121b2576121b28582612371565b6001600160a01b0384166121ce576121c98161240a565b6121f1565b846001600160a01b0316846001600160a01b0316146121f1576121f184826124b1565b5050505050565b6001600160a01b03821661224e5760405162461bcd60e51b815260206004820181905260248201527f4552433732313a206d696e7420746f20746865207a65726f2061646472657373604482015260640161061a565b61225781611bcc565b156122a45760405162461bcd60e51b815260206004820152601c60248201527f4552433732313a20746f6b656e20616c7265616479206d696e74656400000000604482015260640161061a565b6122b15f83836001611e40565b6122ba81611bcc565b156123075760405162461bcd60e51b815260206004820152601c60248201527f4552433732313a20746f6b656e20616c7265616479206d696e74656400000000604482015260640161061a565b6001600160a01b0382165f81815260036020908152604080832080546001019055848352600290915280822080546001600160a01b0319168417905551839291907fddf252ad1be2c89b69c2b068fc378daa952ba7f163c4a11628f55a4df523b3ef908290a45050565b5f600161237d84610ded565b6123879190612f44565b5f838152600760205260409020549091508082146123d8576001600160a01b0384165f9081526006602090815260408083208584528252808320548484528184208190558352600790915290208190555b505f9182526007602090815260408084208490556001600160a01b039094168352600681528383209183525290812055565b6008545f9061241b90600190612f44565b5f838152600960205260408120546008805493945090928490811061244257612442612bd2565b905f5260205f2001549050806008838154811061246157612461612bd2565b5f91825260208083209091019290925582815260099091526040808220849055858252812055600880548061249857612498612f57565b600190038181905f5260205f20015f9055905550505050565b5f6124bb83610ded565b6001600160a01b039093165f908152600660209081526040808320868452825280832085905593825260079052919091209190915550565b6001600160e01b03198116811461148f575f80fd5b5f60208284031215612518575f80fd5b8135611412816124f3565b5f5b8381101561253d578181015183820152602001612525565b50505f910152565b5f815180845261255c816020860160208601612523565b601f01601f19169290920160200192915050565b602081525f6114126020830184612545565b80356001600160a01b0381168114612598575f80fd5b919050565b634e487b7160e01b5f52604160045260245ffd5b604051601f8201601f1916810167ffffffffffffffff811182821017156125da576125da61259d565b604052919050565b5f67ffffffffffffffff8211156125fb576125fb61259d565b5060051b60200190565b5f67ffffffffffffffff83111561261e5761261e61259d565b612631601f8401601f19166020016125b1565b9050828152838383011115612644575f80fd5b828260208301375f602084830101529392505050565b5f82601f830112612669575f80fd5b61141283833560208501612605565b5f82601f830112612687575f80fd5b8135602061269c612697836125e2565b6125b1565b82815260059290921b840181019181810190868411156126ba575f80fd5b8286015b848110156126f857803567ffffffffffffffff8111156126dc575f80fd5b6126ea8986838b010161265a565b8452509183019183016126be565b509695505050505050565b803560038110612598575f80fd5b5f805f8060808587031215612724575f80fd5b61272d85612582565b935060208086013567ffffffffffffffff8082111561274a575f80fd5b61275689838a01612678565b9550604088013591508082111561276b575f80fd5b61277789838a01612678565b9450606088013591508082111561278c575f80fd5b508601601f8101881361279d575f80fd5b80356127ab612697826125e2565b81815260059190911b8201830190838101908a8311156127c9575f80fd5b928401925b828410156127ee576127df84612703565b825292840192908401906127ce565b979a9699509497505050505050565b602080825282518282018190525f9190848201906040850190845b8181101561283457835183529284019291840191600101612818565b50909695505050505050565b5f60208284031215612850575f80fd5b5035919050565b5f8060408385031215612868575f80fd5b61287183612582565b946020939093013593505050565b5f805f60608486031215612891575f80fd5b61289a84612582565b92506128a860208501612582565b9150604084013590509250925092565b80358015158114612598575f80fd5b5f602082840312156128d7575f80fd5b611412826128b8565b5f602082840312156128f0575f80fd5b61141282612582565b5f806040838503121561290a575f80fd5b61291383612582565b9150602083013567ffffffffffffffff81111561292e575f80fd5b61293a8582860161265a565b9150509250929050565b5f60208284031215612954575f80fd5b813567ffffffffffffffff81111561296a575f80fd5b61074b8482850161265a565b5f8060408385031215612987575f80fd5b50508035926020909101359150565b634e487b7160e01b5f52602160045260245ffd5b600381106129c657634e487b7160e01b5f52602160045260245ffd5b9052565b60c081525f6129dc60c0830189612545565b82810360208401526129ee8189612545565b9150506129fe60408301876129aa565b6060820194909452911515608083015260a0909101529392505050565b5f8060408385031215612a2c575f80fd5b612a3583612582565b9150612a43602084016128b8565b90509250929050565b5f805f8060808587031215612a5f575f80fd5b612a6885612582565b9350612a7660208601612582565b925060408501359150606085013567ffffffffffffffff811115612a98575f80fd5b8501601f81018713612aa8575f80fd5b612ab787823560208401612605565b91505092959194509250565b5f8060408385031215612ad4575f80fd5b612add83612582565b9150612a4360208401612582565b5f805f8060808587031215612afe575f80fd5b612b0785612582565b9350602085013567ffffffffffffffff80821115612b23575f80fd5b612b2f8883890161265a565b94506040870135915080821115612b44575f80fd5b50612b518782880161265a565b925050612b6060608601612703565b905092959194509250565b600181811c90821680612b7f57607f821691505b602082108103612b9d57634e487b7160e01b5f52602260045260245ffd5b50919050565b6020808252601590820152742737ba1030baba3437b934bd32b21036b4b73a32b960591b604082015260600190565b634e487b7160e01b5f52603260045260245ffd5b6020808252602d908201527f4552433732313a2063616c6c6572206973206e6f7420746f6b656e206f776e6560408201526c1c881bdc88185c1c1c9bdd9959609a1b606082015260800190565b5f808354612c4081612b6b565b60018281168015612c585760018114612c6d57612c99565b60ff1984168752821515830287019450612c99565b875f526020805f205f5b85811015612c905781548a820152908401908201612c77565b50505082870194505b50929695505050505050565b601f82111561088757805f5260205f20601f840160051c81016020851015612cca5750805b601f840160051c820191505b818110156121f1575f8155600101612cd6565b815167ffffffffffffffff811115612d0357612d0361259d565b612d1781612d118454612b6b565b84612ca5565b602080601f831160018114612d4a575f8415612d335750858301515b5f19600386901b1c1916600185901b178555612da1565b5f85815260208120601f198616915b82811015612d7857888601518255948401946001909101908401612d59565b5085821015612d9557878501515f19600388901b60f8161c191681555b505060018460011b0185555b505050505050565b634e487b7160e01b5f52601160045260245ffd5b5f60018201612dce57612dce612da9565b5060010190565b8082018082111561053f5761053f612da9565b5f82612e0257634e487b7160e01b5f52601260045260245ffd5b500490565b5f8351612e18818460208801612523565b835190830190612e2c818360208801612523565b01949350505050565b604081525f612e476040830185612545565b905061141260208301846129aa565b60208082526025908201527f4552433732313a207472616e736665722066726f6d20696e636f72726563742060408201526437bbb732b960d91b606082015260800190565b60208082526032908201527f4552433732313a207472616e7366657220746f206e6f6e20455243373231526560408201527131b2b4bb32b91034b6b83632b6b2b73a32b960711b606082015260800190565b6001600160a01b03858116825284166020820152604081018390526080606082018190525f90612f1f90830184612545565b9695505050505050565b5f60208284031215612f39575f80fd5b8151611412816124f3565b8181038181111561053f5761053f612da9565b634e487b7160e01b5f52603160045260245ffdfea26469706673582212204ee2bc8bf59c908269622d5fa2ae25519504d5a97c9881608081e65d333c0e5f64736f6c63430008180033","linkReferences":{}},"methodIdentifiers":{"addMinter(address)":"983b2d56","approve(address,uint256)":"095ea7b3","balanceOf(address)":"70a08231","batchMintLessons(address,string[],string[],uint8[])":"070e7635","completeQuiz(uint256,uint256)":"705543c4","exists(uint256)":"4f558e79","getApproved(uint256)":"081812fc","getLessonData(uint256)":"f7773eb8","getUserLessons(address)":"39a828db","getUserProgress(address)":"8e4cc108","hasCompletedLesson(address,string)":"30b7240b","isApprovedForAll(address,address)":"e985e9c5","lessonData(uint256)":"843d734c","mintLessonNFT(address,string,string,uint8)":"fe28b788","minters(address)":"f46eccc4","name()":"06fdde03","owner()":"8da5cb5b","ownerOf(uint256)":"6352211e","removeMinter(address)":"3092afd5","renounceOwnership()":"715018a6","safeTransferFrom(address,address,uint256)":"42842e0e","safeTransferFrom(address,address,uint256,bytes)":"b88d4fde","setApprovalForAll(address,bool)":"a22cb465","setBaseURI(string)":"55f804b3","setTransfersEnabled(bool)":"26b9ce13","supportsInterface(bytes4)":"01ffc9a7","symbol()":"95d89b41","tokenByIndex(uint256)":"4f6ccce7","tokenOfOwnerByIndex(address,uint256)":"2f745c59","tokenURI(uint256)":"c87b56dd","totalSupply()":"18160ddd","transferFrom(address,address,uint256)":"23b872dd","transferOwnership(address)":"f2fde38b","transfersEnabled()":"bef97c87","userNFTs(address,uint256)":"291c73c3"},"id":45}