{"abi":[{"type":"constructor","inputs":[{"name":"_asset","type":"address","internalType":"contract IERC20"},{"name":"_name","type":"string","internalType":"string"},{"name":"_symbol","type":"string","internalType":"string"},{"name":"_initialOwner","type":"address","internalType":"address"}],"stateMutability":"nonpayable"},{"type":"function","name":"FEE_DENOMINATOR","inputs":[],"outputs":[{"name":"","type":"uint256","internalType":"uint256"}],"stateMutability":"view"},{"type":"function","name":"MAX_PERFORMANCE_FEE","inputs":[],"outputs":[{"name":"","type":"uint256","internalType":"uint256"}],"stateMutability":"view"},{"type":"function","name":"allowance","inputs":[{"name":"owner","type":"address","internalType":"address"},{"name":"spender","type":"address","internalType":"address"}],"outputs":[{"name":"","type":"uint256","internalType":"uint256"}],"stateMutability":"view"},{"type":"function","name":"approve","inputs":[{"name":"spender","type":"address","internalType":"address"},{"name":"amount","type":"uint256","internalType":"uint256"}],"outputs":[{"name":"","type":"bool","internalType":"bool"}],"stateMutability":"nonpayable"},{"type":"function","name":"asset","inputs":[],"outputs":[{"name":"","type":"address","internalType":"address"}],"stateMutability":"view"},{"type":"function","name":"balanceOf","inputs":[{"name":"account","type":"address","internalType":"address"}],"outputs":[{"name":"","type":"uint256","internalType":"uint256"}],"stateMutability":"view"},{"type":"function","name":"convertToAssets","inputs":[{"name":"shares","type":"uint256","internalType":"uint256"}],"outputs":[{"name":"","type":"uint256","internalType":"uint256"}],"stateMutability":"view"},{"type":"function","name":"convertToShares","inputs":[{"name":"assets","type":"uint256","internalType":"uint256"}],"outputs":[{"name":"","type":"uint256","internalType":"uint256"}],"stateMutability":"view"},{"type":"function","name":"decimals","inputs":[],"outputs":[{"name":"","type":"uint8","internalType":"uint8"}],"stateMutability":"view"},{"type":"function","name":"decreaseAllowance","inputs":[{"name":"spender","type":"address","internalType":"address"},{"name":"subtractedValue","type":"uint256","internalType":"uint256"}],"outputs":[{"name":"","type":"bool","internalType":"bool"}],"stateMutability":"nonpayable"},{"type":"function","name":"deployCapital","inputs":[{"name":"amount","type":"uint256","internalType":"uint256"}],"outputs":[],"stateMutability":"nonpayable"},{"type":"function","name":"deposit","inputs":[{"name":"assets","type":"uint256","internalType":"uint256"},{"name":"receiver","type":"address","internalType":"address"}],"outputs":[{"name":"shares","type":"uint256","internalType":"uint256"}],"stateMutability":"nonpayable"},{"type":"function","name":"emergencyWithdrawFromStrategies","inputs":[],"outputs":[],"stateMutability":"nonpayable"},{"type":"function","name":"estimatedAPY","inputs":[],"outputs":[{"name":"","type":"uint256","internalType":"uint256"}],"stateMutability":"view"},{"type":"function","name":"getUserStats","inputs":[{"name":"user","type":"address","internalType":"address"}],"outputs":[{"name":"totalDeposited","type":"uint256","internalType":"uint256"},{"name":"currentValue","type":"uint256","internalType":"uint256"},{"name":"yieldContribution","type":"uint256","internalType":"uint256"},{"name":"educationLevel","type":"uint256","internalType":"uint256"},{"name":"daysActive","type":"uint256","internalType":"uint256"},{"name":"sharesOwned","type":"uint256","internalType":"uint256"}],"stateMutability":"view"},{"type":"function","name":"harvestYield","inputs":[],"outputs":[{"name":"totalYield","type":"uint256","internalType":"uint256"}],"stateMutability":"nonpayable"},{"type":"function","name":"increaseAllowance","inputs":[{"name":"spender","type":"address","internalType":"address"},{"name":"addedValue","type":"uint256","internalType":"uint256"}],"outputs":[{"name":"","type":"bool","internalType":"bool"}],"stateMutability":"nonpayable"},{"type":"function","name":"lastHarvestTimestamp","inputs":[],"outputs":[{"name":"","type":"uint256","internalType":"uint256"}],"stateMutability":"view"},{"type":"function","name":"maxDeposit","inputs":[{"name":"","type":"address","internalType":"address"}],"outputs":[{"name":"","type":"uint256","internalType":"uint256"}],"stateMutability":"view"},{"type":"function","name":"maxMint","inputs":[{"name":"","type":"address","internalType":"address"}],"outputs":[{"name":"","type":"uint256","internalType":"uint256"}],"stateMutability":"view"},{"type":"function","name":"maxRedeem","inputs":[{"name":"owner","type":"address","internalType":"address"}],"outputs":[{"name":"","type":"uint256","internalType":"uint256"}],"stateMutability":"view"},{"type":"function","name":"maxWithdraw","inputs":[{"name":"owner","type":"address","internalType":"address"}],"outputs":[{"name":"","type":"uint256","internalType":"uint256"}],"stateMutability":"view"},{"type":"function","name":"mint","inputs":[{"name":"shares","type":"uint256","internalType":"uint256"},{"name":"receiver","type":"address","internalType":"address"}],"outputs":[{"name":"","type":"uint256","internalType":"uint256"}],"stateMutability":"nonpayable"},{"type":"function","name":"name","inputs":[],"outputs":[{"name":"","type":"string","internalType":"string"}],"stateMutability":"view"},{"type":"function","name":"owner","inputs":[],"outputs":[{"name":"","type":"address","internalType":"address"}],"stateMutability":"view"},{"type":"function","name":"performanceFee","inputs":[],"outputs":[{"name":"","type":"uint256","internalType":"uint256"}],"stateMutability":"view"},{"type":"function","name":"previewDeposit","inputs":[{"name":"assets","type":"uint256","internalType":"uint256"}],"outputs":[{"name":"","type":"uint256","internalType":"uint256"}],"stateMutability":"view"},{"type":"function","name":"previewMint","inputs":[{"name":"shares","type":"uint256","internalType":"uint256"}],"outputs":[{"name":"","type":"uint256","internalType":"uint256"}],"stateMutability":"view"},{"type":"function","name":"previewRedeem","inputs":[{"name":"shares","type":"uint256","internalType":"uint256"}],"outputs":[{"name":"","type":"uint256","internalType":"uint256"}],"stateMutability":"view"},{"type":"function","name":"previewWithdraw","inputs":[{"name":"assets","type":"uint256","internalType":"uint256"}],"outputs":[{"name":"","type":"uint256","internalType":"uint256"}],"stateMutability":"view"},{"type":"function","name":"progressTracker","inputs":[],"outputs":[{"name":"","type":"address","internalType":"contract IProgressTracker"}],"stateMutability":"view"},{"type":"function","name":"rebalance","inputs":[],"outputs":[],"stateMutability":"nonpayable"},{"type":"function","name":"redeem","inputs":[{"name":"shares","type":"uint256","internalType":"uint256"},{"name":"receiver","type":"address","internalType":"address"},{"name":"owner","type":"address","internalType":"address"}],"outputs":[{"name":"","type":"uint256","internalType":"uint256"}],"stateMutability":"nonpayable"},{"type":"function","name":"renounceOwnership","inputs":[],"outputs":[],"stateMutability":"nonpayable"},{"type":"function","name":"setPerformanceFee","inputs":[{"name":"_fee","type":"uint256","internalType":"uint256"}],"outputs":[],"stateMutability":"nonpayable"},{"type":"function","name":"setProgressTracker","inputs":[{"name":"_tracker","type":"address","internalType":"address"}],"outputs":[],"stateMutability":"nonpayable"},{"type":"function","name":"setStrategyManager","inputs":[{"name":"_manager","type":"address","internalType":"address"}],"outputs":[],"stateMutability":"nonpayable"},{"type":"function","name":"setTreasury","inputs":[{"name":"_treasury","type":"address","internalType":"address"}],"outputs":[],"stateMutability":"nonpayable"},{"type":"function","name":"strategyManager","inputs":[],"outputs":[{"name":"","type":"address","internalType":"contract IStrategyManager"}],"stateMutability":"view"},{"type":"function","name":"symbol","inputs":[],"outputs":[{"name":"","type":"string","internalType":"string"}],"stateMutability":"view"},{"type":"function","name":"totalAssets","inputs":[],"outputs":[{"name":"","type":"uint256","internalType":"uint256"}],"stateMutability":"view"},{"type":"function","name":"totalDonatedToPublicGoods","inputs":[],"outputs":[{"name":"","type":"uint256","internalType":"uint256"}],"stateMutability":"view"},{"type":"function","name":"totalSupply","inputs":[],"outputs":[{"name":"","type":"uint256","internalType":"uint256"}],"stateMutability":"view"},{"type":"function","name":"totalYieldGenerated","inputs":[],"outputs":[{"name":"","type":"uint256","internalType":"uint256"}],"stateMutability":"view"},{"type":"function","name":"transfer","inputs":[{"name":"to","type":"address","internalType":"address"},{"name":"amount","type":"uint256","internalType":"uint256"}],"outputs":[{"name":"","type":"bool","internalType":"bool"}],"stateMutability":"nonpayable"},{"type":"function","name":"transferFrom","inputs":[{"name":"from","type":"address","internalType":"address"},{"name":"to","type":"address","internalType":"address"},{"name":"amount","type":"uint256","internalType":"uint256"}],"outputs":[{"name":"","type":"bool","internalType":"bool"}],"stateMutability":"nonpayable"},{"type":"function","name":"transferOwnership","inputs":[{"name":"newOwner","type":"address","internalType":"address"}],"outputs":[],"stateMutability":"nonpayable"},{"type":"function","name":"treasury","inputs":[],"outputs":[{"name":"","type":"address","internalType":"address"}],"stateMutability":"view"},{"type":"function","name":"userFirstDepositTime","inputs":[{"name":"","type":"address","internalType":"address"}],"outputs":[{"name":"","type":"uint256","internalType":"uint256"}],"stateMutability":"view"},{"type":"function","name":"userTotalDeposited","inputs":[{"name":"","type":"address","internalType":"address"}],"outputs":[{"name":"","type":"uint256","internalType":"uint256"}],"stateMutability":"view"},{"type":"function","name":"userYieldContribution","inputs":[{"name":"","type":"address","internalType":"address"}],"outputs":[{"name":"","type":"uint256","internalType":"uint256"}],"stateMutability":"view"},{"type":"function","name":"withdraw","inputs":[{"name":"assets","type":"uint256","internalType":"uint256"},{"name":"receiver","type":"address","internalType":"address"},{"name":"owner","type":"address","internalType":"address"}],"outputs":[{"name":"shares","type":"uint256","internalType":"uint256"}],"stateMutability":"nonpayable"},{"type":"event","name":"Approval","inputs":[{"name":"owner","type":"address","indexed":true,"internalType":"address"},{"name":"spender","type":"address","indexed":true,"internalType":"address"},{"name":"value","type":"uint256","indexed":false,"internalType":"uint256"}],"anonymous":false},{"type":"event","name":"Deposit","inputs":[{"name":"sender","type":"address","indexed":true,"internalType":"address"},{"name":"owner","type":"address","indexed":true,"internalType":"address"},{"name":"assets","type":"uint256","indexed":false,"internalType":"uint256"},{"name":"shares","type":"uint256","indexed":false,"internalType":"uint256"}],"anonymous":false},{"type":"event","name":"DonationMade","inputs":[{"name":"amount","type":"uint256","indexed":false,"internalType":"uint256"},{"name":"timestamp","type":"uint256","indexed":false,"internalType":"uint256"}],"anonymous":false},{"type":"event","name":"OwnershipTransferred","inputs":[{"name":"previousOwner","type":"address","indexed":true,"internalType":"address"},{"name":"newOwner","type":"address","indexed":true,"internalType":"address"}],"anonymous":false},{"type":"event","name":"PerformanceFeeUpdated","inputs":[{"name":"newFee","type":"uint256","indexed":false,"internalType":"uint256"}],"anonymous":false},{"type":"event","name":"ProgressTrackerUpdated","inputs":[{"name":"newTracker","type":"address","indexed":true,"internalType":"address"}],"anonymous":false},{"type":"event","name":"StrategyManagerUpdated","inputs":[{"name":"newManager","type":"address","indexed":true,"internalType":"address"}],"anonymous":false},{"type":"event","name":"Transfer","inputs":[{"name":"from","type":"address","indexed":true,"internalType":"address"},{"name":"to","type":"address","indexed":true,"internalType":"address"},{"name":"value","type":"uint256","indexed":false,"internalType":"uint256"}],"anonymous":false},{"type":"event","name":"UserDeposited","inputs":[{"name":"user","type":"address","indexed":true,"internalType":"address"},{"name":"assets","type":"uint256","indexed":false,"internalType":"uint256"},{"name":"shares","type":"uint256","indexed":false,"internalType":"uint256"}],"anonymous":false},{"type":"event","name":"UserWithdrew","inputs":[{"name":"user","type":"address","indexed":true,"internalType":"address"},{"name":"assets","type":"uint256","indexed":false,"internalType":"uint256"},{"name":"shares","type":"uint256","indexed":false,"internalType":"uint256"}],"anonymous":false},{"type":"event","name":"Withdraw","inputs":[{"name":"sender","type":"address","indexed":true,"internalType":"address"},{"name":"receiver","type":"address","indexed":true,"internalType":"address"},{"name":"owner","type":"address","indexed":true,"internalType":"address"},{"name":"assets","type":"uint256","indexed":false,"internalType":"uint256"},{"name":"shares","type":"uint256","indexed":false,"internalType":"uint256"}],"anonymous":false},{"type":"event","name":"YieldHarvested","inputs":[{"name":"amount","type":"uint256","indexed":false,"internalType":"uint256"},{"name":"timestamp","type":"uint256","indexed":false,"internalType":"uint256"}],"anonymous":false}],"bytecode":{"object":"0x60c060405234801562000010575f80fd5b5060405162002b6a38038062002b6a8339810160408190526200003391620002e7565b838383600362000044838262000400565b50600462000053828262000400565b5050505f806200006983620000d960201b60201c565b91509150816200007b5760126200007d565b805b60ff1660a05250506001600160a01b03166080526200009c33620001b8565b6001600655620000ac81620001b8565b601080546001600160a01b0319166001600160a01b0392909216919091179055505042600b555062000501565b60408051600481526024810182526020810180516001600160e01b031663313ce56760e01b17905290515f918291829182916001600160a01b038716916200012191620004cc565b5f60405180830381855afa9150503d805f81146200015b576040519150601f19603f3d011682016040523d82523d5f602084013e62000160565b606091505b50915091508180156200017557506020815110155b15620001ac575f81806020019051810190620001929190620004e9565b905060ff8111620001aa576001969095509350505050565b505b505f9485945092505050565b600580546001600160a01b038381166001600160a01b0319831681179093556040519116919082907f8be0079c531659141344cd1fd0a4f28419497f9722a3daafe3b4186f6b6457e0905f90a35050565b6001600160a01b03811681146200021e575f80fd5b50565b634e487b7160e01b5f52604160045260245ffd5b5f5b838110156200025157818101518382015260200162000237565b50505f910152565b5f82601f83011262000269575f80fd5b81516001600160401b038082111562000286576200028662000221565b604051601f8301601f19908116603f01168101908282118183101715620002b157620002b162000221565b81604052838152866020858801011115620002ca575f80fd5b620002dd84602083016020890162000235565b9695505050505050565b5f805f8060808587031215620002fb575f80fd5b8451620003088162000209565b60208601519094506001600160401b038082111562000325575f80fd5b620003338883890162000259565b9450604087015191508082111562000349575f80fd5b50620003588782880162000259565b92505060608501516200036b8162000209565b939692955090935050565b600181811c908216806200038b57607f821691505b602082108103620003aa57634e487b7160e01b5f52602260045260245ffd5b50919050565b601f821115620003fb57805f5260205f20601f840160051c81016020851015620003d75750805b601f840160051c820191505b81811015620003f8575f8155600101620003e3565b50505b505050565b81516001600160401b038111156200041c576200041c62000221565b62000434816200042d845462000376565b84620003b0565b602080601f8311600181146200046a575f8415620004525750858301515b5f19600386901b1c1916600185901b178555620004c4565b5f85815260208120601f198616915b828110156200049a5788860151825594840194600190910190840162000479565b5085821015620004b857878501515f19600388901b60f8161c191681555b505060018460011b0185555b505050505050565b5f8251620004df81846020870162000235565b9190910192915050565b5f60208284031215620004fa575f80fd5b5051919050565b60805160a05161261d6200054d5f395f610a8c01525f81816103d1015281816106d0015281816108f4015281816109d40152818161131b01528181611ac40152611bf2015261261d5ff3fe608060405234801561000f575f80fd5b50600436106102ff575f3560e01c80638778878211610195578063c63d75b6116100e4578063dd62ed3e1161009e578063ef8b30f711610079578063ef8b30f71461061b578063f0f442601461069e578063f19993d7146106b1578063f2fde38b146106b9575f80fd5b8063dd62ed3e14610670578063e8d991d114610683578063edcdec321461068b575f80fd5b8063c63d75b61461042f578063c6e6f5921461061b578063ce96cb771461062e578063d6fe101e14610641578063d73792a914610654578063d905777e1461065d575f80fd5b8063a457c2d71161014f578063b3d7f6b91161012a578063b3d7f6b9146105d9578063b460af94146105ec578063ba087652146105ff578063bdca916514610612575f80fd5b8063a457c2d714610594578063a9059cbb146105a7578063aa80e8a2146105ba575f80fd5b8063877887821461054d5780638c825056146105565780638da5cb5b1461055f5780639367ee061461057057806394bf804d1461057957806395d89b411461058c575f80fd5b8063402d267d1161025157806361d027b31161020b57806370a08231116101e657806370a08231146104f6578063715018a61461051e5780637d7c2a1c146105265780638334aa3c1461052e575f80fd5b806361d027b3146104bd5780636e553f65146104d057806370897b23146104e3575f80fd5b8063402d267d1461042f5780634cdad506146103335780634e43603a1461044357806353e0cf111461048357806355af88b41461048b5780635c966646146104aa575f80fd5b806318160ddd116102bc578063313ce56711610297578063313ce567146103b557806338d52e0f146103cf578063395093511461040957806339b70e381461041c575f80fd5b806318160ddd146103915780632257a7381461039957806323b872dd146103a2575f80fd5b806301e1d1141461030357806306fdde031461031e57806307a2d13a14610333578063095ea7b3146103465780630a28a477146103695780631611d4071461037c575b5f80fd5b61030b6106cc565b6040519081526020015b60405180910390f35b6103266107f5565b60405161031591906121f6565b61030b610341366004612228565b610885565b61035961035436600461225a565b610896565b6040519015158152602001610315565b61030b610377366004612228565b6108ad565b61038f61038a366004612228565b6108b9565b005b60025461030b565b61030b600b5481565b6103596103b0366004612282565b610a60565b6103bd610a85565b60405160ff9091168152602001610315565b7f00000000000000000000000000000000000000000000000000000000000000005b6040516001600160a01b039091168152602001610315565b61035961041736600461225a565b610ab5565b6007546103f1906001600160a01b031681565b61030b61043d3660046122bb565b505f1990565b6104566104513660046122bb565b610ad6565b604080519687526020870195909552938501929092526060840152608083015260a082015260c001610315565b61038f610c36565b61030b6104993660046122bb565b600e6020525f908152604090205481565b61038f6104b83660046122bb565b610cca565b6010546103f1906001600160a01b031681565b61030b6104de3660046122d4565b610d41565b61038f6104f1366004612228565b610ef0565b61030b6105043660046122bb565b6001600160a01b03165f9081526020819052604090205490565b61038f610f74565b61038f610f87565b61030b61053c3660046122bb565b600c6020525f908152604090205481565b61030b600f5481565b61030b60095481565b6005546001600160a01b03166103f1565b61030b600a5481565b61030b6105873660046122d4565b611003565b61032661101c565b6103596105a236600461225a565b61102b565b6103596105b536600461225a565b6110b0565b61030b6105c83660046122bb565b600d6020525f908152604090205481565b61030b6105e7366004612228565b6110bd565b61030b6105fa3660046122fe565b6110c9565b61030b61060d3660046122fe565b61112e565b61030b6107d081565b61030b610629366004612228565b6111a8565b61030b61063c3660046122bb565b6111b3565b6008546103f1906001600160a01b031681565b61030b61271081565b61030b61066b3660046122bb565b6111d5565b61030b61067e366004612337565b6111f2565b61030b61121c565b61038f6106993660046122bb565b6113e0565b61038f6106ac3660046122bb565b611457565b61030b6114a7565b61038f6106c73660046122bb565b611523565b5f807f00000000000000000000000000000000000000000000000000000000000000006040516370a0823160e01b81523060048201526001600160a01b0391909116906370a0823190602401602060405180830381865afa158015610733573d5f803e3d5ffd5b505050506040513d601f19601f82011682018060405250810190610757919061235f565b6007549091505f906001600160a01b0316156107e45760075f9054906101000a90046001600160a01b03166001600160a01b031663148370fb6040518163ffffffff1660e01b8152600401602060405180830381865afa1580156107bd573d5f803e3d5ffd5b505050506040513d601f19601f820116820180604052508101906107e1919061235f565b90505b6107ee818361238a565b9250505090565b6060600380546108049061239d565b80601f01602080910402602001604051908101604052809291908181526020018280546108309061239d565b801561087b5780601f106108525761010080835404028352916020019161087b565b820191905f5260205f20905b81548152906001019060200180831161085e57829003601f168201915b5050505050905090565b5f610890825f61159c565b92915050565b5f336108a38185856115d4565b5060019392505050565b5f6108908260016116f7565b6108c1611726565b6007546001600160a01b03166108f25760405162461bcd60e51b81526004016108e9906123d5565b60405180910390fd5b7f00000000000000000000000000000000000000000000000000000000000000006040516370a0823160e01b81523060048201526001600160a01b0391909116906370a0823190602401602060405180830381865afa158015610957573d5f803e3d5ffd5b505050506040513d601f19601f8201168201806040525081019061097b919061235f565b8111156109c15760405162461bcd60e51b8152602060048201526014602482015273496e73756666696369656e742062616c616e636560601b60448201526064016108e9565b600754610a04906001600160a01b0316827f00000000000000000000000000000000000000000000000000000000000000005b6001600160a01b03169190611780565b600754604051631611d40760e01b8152600481018390526001600160a01b0390911690631611d407906024015f604051808303815f87803b158015610a47575f80fd5b505af1158015610a59573d5f803e3d5ffd5b5050505050565b5f33610a6d8582856117e8565b610a7885858561185a565b60019150505b9392505050565b5f610ab0817f000000000000000000000000000000000000000000000000000000000000000061240c565b905090565b5f336108a3818585610ac783836111f2565b610ad1919061238a565b6115d4565b5f805f805f80610afa876001600160a01b03165f9081526020819052604090205490565b6001600160a01b0388165f908152600d602052604090205496509050610b1f81610885565b94505f610b2b60025490565b118015610b3957505f600a54115b15610b5c5760025481600a54610b4f9190612425565b610b599190612450565b93505b6008546001600160a01b031615610bdc576008546040516310c91def60e11b81526001600160a01b038981166004830152909116906321923bde90602401602060405180830381865afa158015610bb5573d5f803e3d5ffd5b505050506040513d601f19601f82011682018060405250810190610bd9919061235f565b92505b6001600160a01b0387165f908152600c602052604090205415610c2d576001600160a01b0387165f908152600c60205260409020546201518090610c20904261246f565b610c2a9190612450565b91505b91939550919395565b610c3e611726565b6007546001600160a01b0316610c665760405162461bcd60e51b81526004016108e9906123d5565b60075f9054906101000a90046001600160a01b03166001600160a01b031663dd1917196040518163ffffffff1660e01b81526004015f604051808303815f87803b158015610cb2575f80fd5b505af1158015610cc4573d5f803e3d5ffd5b50505050565b610cd2611726565b6001600160a01b038116610cf85760405162461bcd60e51b81526004016108e990612482565b600780546001600160a01b0319166001600160a01b0383169081179091556040517f95169e42c0fcf2c96d94d59478e3c0a6c9364a02a2821ab833b915d90a51784b905f90a250565b5f610d4a6119fc565b6001600160a01b0382165f908152600c60205260408120549003610de5576001600160a01b038083165f908152600c602052604090204290556008541615610de557600854604051622f926160e21b81526001600160a01b0384811660048301529091169062be4984906024015f604051808303815f87803b158015610dce575f80fd5b505af1158015610de0573d5f803e3d5ffd5b505050505b610def8383611a55565b6001600160a01b0383165f908152600d6020526040812080549293508592909190610e1b90849061238a565b90915550506008546001600160a01b031615610ea2576008546001600160a01b038381165f818152600d60205260409081902054905163f7a3000360e01b81526004810192909252602482015291169063f7a30003906044015f604051808303815f87803b158015610e8b575f80fd5b505af1158015610e9d573d5f803e3d5ffd5b505050505b60408051848152602081018390526001600160a01b038416917f9fa0303acb2d73e4e86bf54dd3fba8208feacfb4f5a79175dc1f36b674da0dbb910160405180910390a26108906001600655565b610ef8611726565b6107d0811115610f395760405162461bcd60e51b815260206004820152600c60248201526b08ccaca40e8dede40d0d2ced60a31b60448201526064016108e9565b600f8190556040518181527f9b49d0cd76012d9c67241c2f68f836efbaf50ea29901a250040671402d5263f59060200160405180910390a150565b610f7c611726565b610f855f611a6e565b565b610f8f611726565b6007546001600160a01b0316610fb75760405162461bcd60e51b81526004016108e9906123d5565b60075f9054906101000a90046001600160a01b03166001600160a01b0316637d7c2a1c6040518163ffffffff1660e01b81526004015f604051808303815f87803b158015610cb2575f80fd5b5f8061100e846110bd565b9050610a7e33848387611abf565b6060600480546108049061239d565b5f338161103882866111f2565b9050838110156110985760405162461bcd60e51b815260206004820152602560248201527f45524332303a2064656372656173656420616c6c6f77616e63652062656c6f77604482015264207a65726f60d81b60648201526084016108e9565b6110a582868684036115d4565b506001949350505050565b5f336108a381858561185a565b5f61089082600161159c565b5f6110d26119fc565b6110dd848484611b51565b60408051868152602081018390529192506001600160a01b038416917f755012e2f452d6e07692ebbac509b615989a2f49c7c41b630e386c5526e6fcf2910160405180910390a2610a7e6001600655565b5f611138826111d5565b8411156111875760405162461bcd60e51b815260206004820152601d60248201527f455243343632363a2072656465656d206d6f7265207468616e206d617800000060448201526064016108e9565b5f61119185610885565b90506111a03385858489611bbf565b949350505050565b5f610890825f6116f7565b6001600160a01b0381165f90815260208190526040812054610890905f61159c565b6001600160a01b0381165f90815260208190526040812054610890565b6001600160a01b039182165f90815260016020908152604080832093909416825291909152205490565b5f611225611726565b6007546001600160a01b031661124d5760405162461bcd60e51b81526004016108e9906123d5565b60075f9054906101000a90046001600160a01b03166001600160a01b0316631997db766040518163ffffffff1660e01b81526004016020604051808303815f875af115801561129e573d5f803e3d5ffd5b505050506040513d601f19601f820116820180604052508101906112c2919061235f565b905080156113dd578060095f8282546112db919061238a565b9091555050600f545f901561133f57612710600f54836112fb9190612425565b6113059190612450565b60105490915061133f906001600160a01b0316827f00000000000000000000000000000000000000000000000000000000000000006109f4565b5f61134a828461246f565b905080600a5f82825461135d919061238a565b909155505042600b8190556040805185815260208101929092527f3fb12fb590bb295327f3bfc48158ada0b1147f8f823e0c7a09b98b301d186774910160405180910390a1604080518281524260208201527f851e316b7c3fb36502fc185ed82eda2adbfb4bffbb128da5bb72d0abcf0f1824910160405180910390a150505b90565b6113e8611726565b6001600160a01b03811661140e5760405162461bcd60e51b81526004016108e990612482565b600880546001600160a01b0319166001600160a01b0383169081179091556040517fd55d6aa6053162e1da8b99fd7c3cb9c117e252fe19a58470e06e62938a6dfe73905f90a250565b61145f611726565b6001600160a01b0381166114855760405162461bcd60e51b81526004016108e990612482565b601080546001600160a01b0319166001600160a01b0392909216919091179055565b5f6114b06106cc565b15806114bc5750600b54155b156114c657505f90565b5f600b54426114d5919061246f565b9050805f036114e5575f91505090565b5f816009546301e133806114f99190612425565b6115039190612450565b905061150d6106cc565b61151982612710612425565b6107ee9190612450565b61152b611726565b6001600160a01b0381166115905760405162461bcd60e51b815260206004820152602660248201527f4f776e61626c653a206e6577206f776e657220697320746865207a65726f206160448201526564647265737360d01b60648201526084016108e9565b61159981611a6e565b50565b5f610a7e6115a86106cc565b6115b390600161238a565b6115be5f600a61258b565b6002546115cb919061238a565b85919085611c7f565b6001600160a01b0383166116365760405162461bcd60e51b8152602060048201526024808201527f45524332303a20617070726f76652066726f6d20746865207a65726f206164646044820152637265737360e01b60648201526084016108e9565b6001600160a01b0382166116975760405162461bcd60e51b815260206004820152602260248201527f45524332303a20617070726f766520746f20746865207a65726f206164647265604482015261737360f01b60648201526084016108e9565b6001600160a01b038381165f8181526001602090815260408083209487168084529482529182902085905590518481527f8c5be1e5ebec7d5bd14f71427d1e84f3dd0314c0f7b2291e5b200ac8c7c3b925910160405180910390a3505050565b5f610a7e61170682600a61258b565b600254611713919061238a565b61171b6106cc565b6115cb90600161238a565b6005546001600160a01b03163314610f855760405162461bcd60e51b815260206004820181905260248201527f4f776e61626c653a2063616c6c6572206973206e6f7420746865206f776e657260448201526064016108e9565b6040516001600160a01b0383166024820152604481018290526117e390849063a9059cbb60e01b906064015b60408051601f198184030181529190526020810180516001600160e01b03166001600160e01b031990931692909217909152611cda565b505050565b5f6117f384846111f2565b90505f198114610cc4578181101561184d5760405162461bcd60e51b815260206004820152601d60248201527f45524332303a20696e73756666696369656e7420616c6c6f77616e636500000060448201526064016108e9565b610cc484848484036115d4565b6001600160a01b0383166118be5760405162461bcd60e51b815260206004820152602560248201527f45524332303a207472616e736665722066726f6d20746865207a65726f206164604482015264647265737360d81b60648201526084016108e9565b6001600160a01b0382166119205760405162461bcd60e51b815260206004820152602360248201527f45524332303a207472616e7366657220746f20746865207a65726f206164647260448201526265737360e81b60648201526084016108e9565b6001600160a01b0383165f90815260208190526040902054818110156119975760405162461bcd60e51b815260206004820152602660248201527f45524332303a207472616e7366657220616d6f756e7420657863656564732062604482015265616c616e636560d01b60648201526084016108e9565b6001600160a01b038481165f81815260208181526040808320878703905593871680835291849020805487019055925185815290927fddf252ad1be2c89b69c2b068fc378daa952ba7f163c4a11628f55a4df523b3ef910160405180910390a3610cc4565b600260065403611a4e5760405162461bcd60e51b815260206004820152601f60248201527f5265656e7472616e637947756172643a207265656e7472616e742063616c6c0060448201526064016108e9565b6002600655565b5f80611a60846111a8565b9050610a7e33848684611abf565b600580546001600160a01b038381166001600160a01b0319831681179093556040519116919082907f8be0079c531659141344cd1fd0a4f28419497f9722a3daafe3b4186f6b6457e0905f90a35050565b611aeb7f0000000000000000000000000000000000000000000000000000000000000000853085611dad565b611af58382611de5565b826001600160a01b0316846001600160a01b03167fdcbc1c05240f31ff3ad067ef1ee35ce4997762752e3a095284754544f4c709d78484604051611b43929190918252602082015260400190565b60405180910390a350505050565b5f611b5b826111b3565b841115611baa5760405162461bcd60e51b815260206004820152601f60248201527f455243343632363a207769746864726177206d6f7265207468616e206d61780060448201526064016108e9565b5f611bb4856108ad565b90506111a033858588855b826001600160a01b0316856001600160a01b031614611be357611be38386836117e8565b611bed8382611ea2565b611c187f00000000000000000000000000000000000000000000000000000000000000008584611780565b826001600160a01b0316846001600160a01b0316866001600160a01b03167ffbde797d201c681b91056529119e0b02407c7bb96a4a2c75c01fc9667232c8db8585604051611c70929190918252602082015260400190565b60405180910390a45050505050565b5f80611c8c868686611fd2565b90506001836002811115611ca257611ca2612599565b148015611cbe57505f8480611cb957611cb961243c565b868809115b15611cd157611cce60018261238a565b90505b95945050505050565b5f611d2e826040518060400160405280602081526020017f5361666545524332303a206c6f772d6c6576656c2063616c6c206661696c6564815250856001600160a01b03166120b79092919063ffffffff16565b905080515f1480611d4e575080806020019051810190611d4e91906125ad565b6117e35760405162461bcd60e51b815260206004820152602a60248201527f5361666545524332303a204552433230206f7065726174696f6e20646964206e6044820152691bdd081cdd58d8d9595960b21b60648201526084016108e9565b6040516001600160a01b0380851660248301528316604482015260648101829052610cc49085906323b872dd60e01b906084016117ac565b6001600160a01b038216611e3b5760405162461bcd60e51b815260206004820152601f60248201527f45524332303a206d696e7420746f20746865207a65726f20616464726573730060448201526064016108e9565b8060025f828254611e4c919061238a565b90915550506001600160a01b0382165f81815260208181526040808320805486019055518481527fddf252ad1be2c89b69c2b068fc378daa952ba7f163c4a11628f55a4df523b3ef910160405180910390a35050565b6001600160a01b038216611f025760405162461bcd60e51b815260206004820152602160248201527f45524332303a206275726e2066726f6d20746865207a65726f206164647265736044820152607360f81b60648201526084016108e9565b6001600160a01b0382165f9081526020819052604090205481811015611f755760405162461bcd60e51b815260206004820152602260248201527f45524332303a206275726e20616d6f756e7420657863656564732062616c616e604482015261636560f01b60648201526084016108e9565b6001600160a01b0383165f818152602081815260408083208686039055600280548790039055518581529192917fddf252ad1be2c89b69c2b068fc378daa952ba7f163c4a11628f55a4df523b3ef910160405180910390a3505050565b5f80805f19858709858702925082811083820303915050805f0361200957838281611fff57611fff61243c565b0492505050610a7e565b8084116120505760405162461bcd60e51b81526020600482015260156024820152744d6174683a206d756c446976206f766572666c6f7760581b60448201526064016108e9565b5f8486880960026001871981018816978890046003810283188082028403028082028403028082028403028082028403028082028403029081029092039091025f889003889004909101858311909403939093029303949094049190911702949350505050565b60606111a084845f85855f80866001600160a01b031685876040516120dc91906125cc565b5f6040518083038185875af1925050503d805f8114612116576040519150601f19603f3d011682016040523d82523d5f602084013e61211b565b606091505b509150915061212c87838387612137565b979650505050505050565b606083156121a55782515f0361219e576001600160a01b0385163b61219e5760405162461bcd60e51b815260206004820152601d60248201527f416464726573733a2063616c6c20746f206e6f6e2d636f6e747261637400000060448201526064016108e9565b50816111a0565b6111a083838151156121ba5781518083602001fd5b8060405162461bcd60e51b81526004016108e991906121f6565b5f5b838110156121ee5781810151838201526020016121d6565b50505f910152565b602081525f82518060208401526122148160408501602087016121d4565b601f01601f19169190910160400192915050565b5f60208284031215612238575f80fd5b5035919050565b80356001600160a01b0381168114612255575f80fd5b919050565b5f806040838503121561226b575f80fd5b6122748361223f565b946020939093013593505050565b5f805f60608486031215612294575f80fd5b61229d8461223f565b92506122ab6020850161223f565b9150604084013590509250925092565b5f602082840312156122cb575f80fd5b610a7e8261223f565b5f80604083850312156122e5575f80fd5b823591506122f56020840161223f565b90509250929050565b5f805f60608486031215612310575f80fd5b833592506123206020850161223f565b915061232e6040850161223f565b90509250925092565b5f8060408385031215612348575f80fd5b6123518361223f565b91506122f56020840161223f565b5f6020828403121561236f575f80fd5b5051919050565b634e487b7160e01b5f52601160045260245ffd5b8082018082111561089057610890612376565b600181811c908216806123b157607f821691505b6020821081036123cf57634e487b7160e01b5f52602260045260245ffd5b50919050565b60208082526018908201527f5374726174656779206d616e61676572206e6f74207365740000000000000000604082015260600190565b60ff818116838216019081111561089057610890612376565b808202811582820484141761089057610890612376565b634e487b7160e01b5f52601260045260245ffd5b5f8261246a57634e487b7160e01b5f52601260045260245ffd5b500490565b8181038181111561089057610890612376565b6020808252600f908201526e496e76616c6964206164647265737360881b604082015260600190565b600181815b808511156124e557815f19048211156124cb576124cb612376565b808516156124d857918102915b93841c93908002906124b0565b509250929050565b5f826124fb57506001610890565b8161250757505f610890565b816001811461251d576002811461252757612543565b6001915050610890565b60ff84111561253857612538612376565b50506001821b610890565b5060208310610133831016604e8410600b8410161715612566575081810a610890565b61257083836124ab565b805f190482111561258357612583612376565b029392505050565b5f610a7e60ff8416836124ed565b634e487b7160e01b5f52602160045260245ffd5b5f602082840312156125bd575f80fd5b81518015158114610a7e575f80fd5b5f82516125dd8184602087016121d4565b919091019291505056fea2646970667358221220a8d454e120d9664668e5d999dbc0ec955508e409c141d83d79befd7e9fbe9f1c64736f6c63430008180033","linkReferences":{}},"methodIdentifiers":{"FEE_DENOMINATOR()":"d73792a9","MAX_PERFORMANCE_FEE()":"bdca9165","allowance(address,address)":"dd62ed3e","approve(address,uint256)":"095ea7b3","asset()":"38d52e0f","balanceOf(address)":"70a08231","convertToAssets(uint256)":"07a2d13a","convertToShares(uint256)":"c6e6f592","decimals()":"313ce567","decreaseAllowance(address,uint256)":"a457c2d7","deployCapital(uint256)":"1611d407","deposit(uint256,address)":"6e553f65","emergencyWithdrawFromStrategies()":"53e0cf11","estimatedAPY()":"f19993d7","getUserStats(address)":"4e43603a","harvestYield()":"e8d991d1","increaseAllowance(address,uint256)":"39509351","lastHarvestTimestamp()":"2257a738","maxDeposit(address)":"402d267d","maxMint(address)":"c63d75b6","maxRedeem(address)":"d905777e","maxWithdraw(address)":"ce96cb77","mint(uint256,address)":"94bf804d","name()":"06fdde03","owner()":"8da5cb5b","performanceFee()":"87788782","previewDeposit(uint256)":"ef8b30f7","previewMint(uint256)":"b3d7f6b9","previewRedeem(uint256)":"4cdad506","previewWithdraw(uint256)":"0a28a477","progressTracker()":"d6fe101e","rebalance()":"7d7c2a1c","redeem(uint256,address,address)":"ba087652","renounceOwnership()":"715018a6","setPerformanceFee(uint256)":"70897b23","setProgressTracker(address)":"edcdec32","setStrategyManager(address)":"5c966646","setTreasury(address)":"f0f44260","strategyManager()":"39b70e38","symbol()":"95d89b41","totalAssets()":"01e1d114","totalDonatedToPublicGoods()":"9367ee06","totalSupply()":"18160ddd","totalYieldGenerated()":"8c825056","transfer(address,uint256)":"a9059cbb","transferFrom(address,address,uint256)":"23b872dd","transferOwnership(address)":"f2fde38b","treasury()":"61d027b3","userFirstDepositTime(address)":"8334aa3c","userTotalDeposited(address)":"aa80e8a2","userYieldContribution(address)":"55af88b4","withdraw(uint256,address,address)":"b460af94"},"id":43}