{"abi":[{"type":"constructor","inputs":[{"name":"_asset","type":"address","internalType":"address"},{"name":"_vault","type":"address","internalType":"address"},{"name":"_initialOwner","type":"address","internalType":"address"}],"stateMutability":"nonpayable"},{"type":"function","name":"MAX_BPS","inputs":[],"outputs":[{"name":"","type":"uint256","internalType":"uint256"}],"stateMutability":"view"},{"type":"function","name":"MAX_STRATEGIES","inputs":[],"outputs":[{"name":"","type":"uint256","internalType":"uint256"}],"stateMutability":"view"},{"type":"function","name":"addStrategy","inputs":[{"name":"strategyAddress","type":"address","internalType":"address"},{"name":"name","type":"string","internalType":"string"},{"name":"targetAllocation","type":"uint256","internalType":"uint256"}],"outputs":[],"stateMutability":"nonpayable"},{"type":"function","name":"asset","inputs":[],"outputs":[{"name":"","type":"address","internalType":"contract IERC20"}],"stateMutability":"view"},{"type":"function","name":"deactivateStrategy","inputs":[{"name":"strategyId","type":"uint256","internalType":"uint256"}],"outputs":[],"stateMutability":"nonpayable"},{"type":"function","name":"deployCapital","inputs":[{"name":"totalAmount","type":"uint256","internalType":"uint256"}],"outputs":[],"stateMutability":"nonpayable"},{"type":"function","name":"emergencyWithdrawAll","inputs":[],"outputs":[],"stateMutability":"nonpayable"},{"type":"function","name":"getStrategyCount","inputs":[],"outputs":[{"name":"","type":"uint256","internalType":"uint256"}],"stateMutability":"view"},{"type":"function","name":"getStrategyDistribution","inputs":[],"outputs":[{"name":"names","type":"string[]","internalType":"string[]"},{"name":"allocations","type":"uint256[]","internalType":"uint256[]"},{"name":"amounts","type":"uint256[]","internalType":"uint256[]"}],"stateMutability":"view"},{"type":"function","name":"getTotalAllocation","inputs":[],"outputs":[{"name":"total","type":"uint256","internalType":"uint256"}],"stateMutability":"view"},{"type":"function","name":"harvestAllStrategies","inputs":[],"outputs":[{"name":"totalYield","type":"uint256","internalType":"uint256"}],"stateMutability":"nonpayable"},{"type":"function","name":"harvestStrategy","inputs":[{"name":"strategyId","type":"uint256","internalType":"uint256"}],"outputs":[{"name":"","type":"uint256","internalType":"uint256"}],"stateMutability":"nonpayable"},{"type":"function","name":"owner","inputs":[],"outputs":[{"name":"","type":"address","internalType":"address"}],"stateMutability":"view"},{"type":"function","name":"rebalance","inputs":[],"outputs":[],"stateMutability":"nonpayable"},{"type":"function","name":"renounceOwnership","inputs":[],"outputs":[],"stateMutability":"nonpayable"},{"type":"function","name":"setVault","inputs":[{"name":"_vault","type":"address","internalType":"address"}],"outputs":[],"stateMutability":"nonpayable"},{"type":"function","name":"strategies","inputs":[{"name":"","type":"uint256","internalType":"uint256"}],"outputs":[{"name":"strategyAddress","type":"address","internalType":"address"},{"name":"name","type":"string","internalType":"string"},{"name":"targetAllocation","type":"uint256","internalType":"uint256"},{"name":"deployedAmount","type":"uint256","internalType":"uint256"},{"name":"isActive","type":"bool","internalType":"bool"},{"name":"lastHarvest","type":"uint256","internalType":"uint256"}],"stateMutability":"view"},{"type":"function","name":"totalDeployedAssets","inputs":[],"outputs":[{"name":"total","type":"uint256","internalType":"uint256"}],"stateMutability":"view"},{"type":"function","name":"transferOwnership","inputs":[{"name":"newOwner","type":"address","internalType":"address"}],"outputs":[],"stateMutability":"nonpayable"},{"type":"function","name":"updateStrategyAllocation","inputs":[{"name":"strategyId","type":"uint256","internalType":"uint256"},{"name":"newAllocation","type":"uint256","internalType":"uint256"}],"outputs":[],"stateMutability":"nonpayable"},{"type":"function","name":"vault","inputs":[],"outputs":[{"name":"","type":"address","internalType":"address"}],"stateMutability":"view"},{"type":"event","name":"CapitalDeployed","inputs":[{"name":"totalAmount","type":"uint256","indexed":false,"internalType":"uint256"}],"anonymous":false},{"type":"event","name":"EmergencyWithdraw","inputs":[{"name":"strategyId","type":"uint256","indexed":true,"internalType":"uint256"},{"name":"amount","type":"uint256","indexed":false,"internalType":"uint256"}],"anonymous":false},{"type":"event","name":"OwnershipTransferred","inputs":[{"name":"previousOwner","type":"address","indexed":true,"internalType":"address"},{"name":"newOwner","type":"address","indexed":true,"internalType":"address"}],"anonymous":false},{"type":"event","name":"Rebalanced","inputs":[{"name":"timestamp","type":"uint256","indexed":false,"internalType":"uint256"}],"anonymous":false},{"type":"event","name":"StrategyAdded","inputs":[{"name":"strategyId","type":"uint256","indexed":true,"internalType":"uint256"},{"name":"strategy","type":"address","indexed":false,"internalType":"address"},{"name":"name","type":"string","indexed":false,"internalType":"string"},{"name":"allocation","type":"uint256","indexed":false,"internalType":"uint256"}],"anonymous":false},{"type":"event","name":"StrategyRemoved","inputs":[{"name":"strategyId","type":"uint256","indexed":true,"internalType":"uint256"}],"anonymous":false},{"type":"event","name":"StrategyUpdated","inputs":[{"name":"strategyId","type":"uint256","indexed":true,"internalType":"uint256"},{"name":"newAllocation","type":"uint256","indexed":false,"internalType":"uint256"}],"anonymous":false},{"type":"event","name":"YieldHarvested","inputs":[{"name":"strategyId","type":"uint256","indexed":true,"internalType":"uint256"},{"name":"amount","type":"uint256","indexed":false,"internalType":"uint256"}],"anonymous":false}],"bytecode":{"object":"0x60a060405234801562000010575f80fd5b506040516200260738038062002607833981016040819052620000339162000176565b6200003e336200010b565b600180556001600160a01b0383166200008e5760405162461bcd60e51b815260206004820152600d60248201526c125b9d985b1a5908185cdcd95d609a1b60448201526064015b60405180910390fd5b6001600160a01b038216620000d65760405162461bcd60e51b815260206004820152600d60248201526c125b9d985b1a59081d985d5b1d609a1b604482015260640162000085565b620000e1816200010b565b506001600160a01b03918216608052600280546001600160a01b03191691909216179055620001bd565b5f80546001600160a01b038381166001600160a01b0319831681178455604051919092169283917f8be0079c531659141344cd1fd0a4f28419497f9722a3daafe3b4186f6b6457e09190a35050565b80516001600160a01b038116811462000171575f80fd5b919050565b5f805f6060848603121562000189575f80fd5b62000194846200015a565b9250620001a4602085016200015a565b9150620001b4604085016200015a565b90509250925092565b608051612400620002075f395f81816101a901528181610428015281816106b90152818161071c01528181610a1101528181610fd50152818161176201526117ec01526124005ff3fe608060405234801561000f575f80fd5b5060043610610132575f3560e01c8063715018a6116100b4578063d574ea3d11610079578063d574ea3d14610248578063dd1917191461026d578063f2fde38b14610275578063fbfa77cf14610288578063fd967f471461029b578063fe1148e1146102a4575f80fd5b8063715018a614610209578063767f06ae146102115780637d7c2a1c146102195780638da5cb5b14610221578063bf7f93cb14610231575f80fd5b806326988bc5116100fa57806326988bc51461018957806331e19cfa1461019c57806338d52e0f146101a4578063456f948b146101e35780636817031b146101f6575f80fd5b80630c36b3d214610136578063148370fb1461015c57806315d3b5d8146101645780631611d4071461016c5780631997db7614610181575b5f80fd5b610149610144366004611e87565b6102b7565b6040519081526020015b60405180910390f35b610149610494565b61014961050c565b61017f61017a366004611e87565b610580565b005b610149610861565b61017f610197366004611ec8565b610a3d565b600354610149565b6101cb7f000000000000000000000000000000000000000000000000000000000000000081565b6040516001600160a01b039091168152602001610153565b61017f6101f1366004611e87565b610c7a565b61017f610204366004611f8c565b610e55565b61017f610ec7565b610149600a81565b61017f610eda565b5f546001600160a01b03166101cb565b61023961125d565b60405161015393929190612033565b61025b610256366004611e87565b61152d565b604051610153969594939291906120bd565b61017f61160a565b61017f610283366004611f8c565b611815565b6002546101cb906001600160a01b031681565b61014961271081565b61017f6102b2366004612105565b61188b565b5f6102c06119ae565b60035482106102ea5760405162461bcd60e51b81526004016102e190612125565b60405180910390fd5b600382815481106102fd576102fd61214f565b5f91825260209091206004600690920201015460ff166103535760405162461bcd60e51b8152602060048201526011602482015270537472617465677920696e61637469766560781b60448201526064016102e1565b5f600383815481106103675761036761214f565b905f5260205f2090600602015f015f9054906101000a90046001600160a01b03166001600160a01b031663e8d991d16040518163ffffffff1660e01b81526004016020604051808303815f875af11580156103c4573d5f803e3d5ffd5b505050506040513d601f19601f820116820180604052508101906103e89190612163565b9050801561048c5742600384815481106104045761040461214f565b5f918252602090912060069091020160050155600254610451906001600160a01b037f00000000000000000000000000000000000000000000000000000000000000008116911683611a07565b827f3fb12fb590bb295327f3bfc48158ada0b1147f8f823e0c7a09b98b301d1867748260405161048391815260200190565b60405180910390a25b90505b919050565b5f805b60035481101561050857600381815481106104b4576104b461214f565b5f91825260209091206004600690920201015460ff161561050057600381815481106104e2576104e261214f565b905f5260205f20906006020160030154826104fd919061218e565b91505b600101610497565b5090565b5f805b600354811015610508576003818154811061052c5761052c61214f565b5f91825260209091206004600690920201015460ff1615610578576003818154811061055a5761055a61214f565b905f5260205f2090600602016002015482610575919061218e565b91505b60010161050f565b6002546001600160a01b031633146105c75760405162461bcd60e51b815260206004820152600a60248201526913db9b1e481d985d5b1d60b21b60448201526064016102e1565b6105cf611a6f565b5f81116106135760405162461bcd60e51b81526020600482015260126024820152710416d6f756e74206d757374206265203e20360741b60448201526064016102e1565b5f805b60035481101561082057600381815481106106335761063361214f565b5f91825260209091206004600690920201015460ff1615610818575f612710600383815481106106655761066561214f565b905f5260205f209060060201600201548561068091906121a7565b61068a91906121be565b90508015610816576106ec600383815481106106a8576106a861214f565b5f91825260208220600690910201547f00000000000000000000000000000000000000000000000000000000000000006001600160a01b0390811692911690611ac8565b610745600383815481106107025761070261214f565b5f9182526020909120600690910201546001600160a01b037f00000000000000000000000000000000000000000000000000000000000000008116911683611ac8565b600382815481106107585761075861214f565b5f91825260209091206006909102015460405163b6b55f2560e01b8152600481018390526001600160a01b039091169063b6b55f25906024016020604051808303815f875af11580156107ad573d5f803e3d5ffd5b505050506040513d601f19601f820116820180604052508101906107d19190612163565b5080600383815481106107e6576107e661214f565b905f5260205f2090600602016003015f828254610803919061218e565b909155506108139050818461218e565b92505b505b600101610616565b506040518181527fb099209a2643093b3855e06f5bcd5b960cb17ab187dfcac585e128716632dd339060200160405180910390a15061085e60018055565b50565b6002545f906001600160a01b031633146108aa5760405162461bcd60e51b815260206004820152600a60248201526913db9b1e481d985d5b1d60b21b60448201526064016102e1565b5f5b6003548110156109f957600381815481106108c9576108c961214f565b5f91825260209091206004600690920201015460ff16156109f1575f600382815481106108f8576108f861214f565b905f5260205f2090600602015f015f9054906101000a90046001600160a01b03166001600160a01b031663e8d991d16040518163ffffffff1660e01b81526004016020604051808303815f875af1158015610955573d5f803e3d5ffd5b505050506040513d601f19601f820116820180604052508101906109799190612163565b905080156109ef5761098b818461218e565b925042600383815481106109a1576109a161214f565b905f5260205f20906006020160050181905550817f3fb12fb590bb295327f3bfc48158ada0b1147f8f823e0c7a09b98b301d186774826040516109e691815260200190565b60405180910390a25b505b6001016108ac565b508015610a3a57600254610a3a906001600160a01b037f00000000000000000000000000000000000000000000000000000000000000008116911683611a07565b90565b610a456119ae565b600354600a11610a905760405162461bcd60e51b815260206004820152601660248201527513585e081cdd1c985d1959da595cc81c995858da195960521b60448201526064016102e1565b6001600160a01b038316610ad85760405162461bcd60e51b815260206004820152600f60248201526e496e76616c6964206164647265737360881b60448201526064016102e1565b61271081610ae461050c565b610aee919061218e565b1115610b365760405162461bcd60e51b8152602060048201526017602482015276416c6c6f636174696f6e2065786365656473203130302560481b60448201526064016102e1565b6040805160c0810182526001600160a01b038581168252602082018581529282018490525f606083018190526001608084018190524260a085015260038054918201815590915282517fc2575a0e9e593c00f959f8c92f12db2869c3395a3b0502d05e2516446f71f85b600690920291820180546001600160a01b031916919093161782559251919290917fc2575a0e9e593c00f959f8c92f12db2869c3395a3b0502d05e2516446f71f85c90910190610bf09082612260565b50604082015160028201556060820151600380830191909155608083015160048301805460ff191691151591909117905560a09092015160059091015554610c3a90600190612320565b7f2243e9807d404cc49e42b20e4cf67c6df38a0ed54ca5e11bc9502e7af133c84b848484604051610c6d93929190612333565b60405180910390a2505050565b610c826119ae565b6003548110610ca35760405162461bcd60e51b81526004016102e190612125565b60038181548110610cb657610cb661214f565b5f91825260209091206004600690920201015460ff16610d0b5760405162461bcd60e51b815260206004820152601060248201526f416c726561647920696e61637469766560801b60448201526064016102e1565b5f60038281548110610d1f57610d1f61214f565b905f5260205f209060060201600301541115610dcb5760038181548110610d4857610d4861214f565b905f5260205f2090600602015f015f9054906101000a90046001600160a01b03166001600160a01b031663853828b66040518163ffffffff1660e01b81526004016020604051808303815f875af1158015610da5573d5f803e3d5ffd5b505050506040513d601f19601f82011682018060405250810190610dc99190612163565b505b5f60038281548110610ddf57610ddf61214f565b5f9182526020822060069190910201600401805460ff1916921515929092179091556003805483908110610e1557610e1561214f565b5f918252602082206002600690920201019190915560405182917fd75105a2aa4d0e369051dafafb95bda6d8633cb084ab8f4db5ebc096f880f54591a250565b610e5d6119ae565b6001600160a01b038116610ea55760405162461bcd60e51b815260206004820152600f60248201526e496e76616c6964206164647265737360881b60448201526064016102e1565b600280546001600160a01b0319166001600160a01b0392909216919091179055565b610ecf6119ae565b610ed85f611bdb565b565b610ee26119ae565b610eea611a6f565b5f610ef3610494565b9050805f03610f025750611254565b5f5b60035481101561121e5760038181548110610f2157610f2161214f565b5f91825260209091206004600690920201015460ff1615611216575f61271060038381548110610f5357610f5361214f565b905f5260205f2090600602016002015484610f6e91906121a7565b610f7891906121be565b90505f60038381548110610f8e57610f8e61214f565b905f5260205f20906006020160030154905080821115611139575f610fb38284612320565b6040516370a0823160e01b815230600482015290915081906001600160a01b037f000000000000000000000000000000000000000000000000000000000000000016906370a0823190602401602060405180830381865afa15801561101a573d5f803e3d5ffd5b505050506040513d601f19601f8201168201806040525081019061103e9190612163565b1061113357611059600385815481106106a8576106a861214f565b61106f600385815481106107025761070261214f565b600384815481106110825761108261214f565b5f91825260209091206006909102015460405163b6b55f2560e01b8152600481018390526001600160a01b039091169063b6b55f25906024016020604051808303815f875af11580156110d7573d5f803e3d5ffd5b505050506040513d601f19601f820116820180604052508101906110fb9190612163565b5080600385815481106111105761111061214f565b905f5260205f2090600602016003015f82825461112d919061218e565b90915550505b50611213565b80821015611213575f61114c8383612320565b9050600384815481106111615761116161214f565b5f918252602090912060069091020154604051632e1a7d4d60e01b8152600481018390526001600160a01b0390911690632e1a7d4d906024016020604051808303815f875af11580156111b6573d5f803e3d5ffd5b505050506040513d601f19601f820116820180604052508101906111da9190612163565b5080600385815481106111ef576111ef61214f565b905f5260205f2090600602016003015f82825461120c9190612320565b9091555050505b50505b600101610f04565b506040514281527fc306af072396b02bf3a9782c10065cc7ff4aa842934a43f0b76f997b291237c89060200160405180910390a1505b610ed860018055565b60608060605f805b6003548110156112b357600381815481106112825761128261214f565b5f91825260209091206004600690920201015460ff16156112ab57816112a781612366565b9250505b600101611265565b508067ffffffffffffffff8111156112cd576112cd611eb4565b60405190808252806020026020018201604052801561130057816020015b60608152602001906001900390816112eb5790505b5093508067ffffffffffffffff81111561131c5761131c611eb4565b604051908082528060200260200182016040528015611345578160200160208202803683370190505b5092508067ffffffffffffffff81111561136157611361611eb4565b60405190808252806020026020018201604052801561138a578160200160208202803683370190505b5091505f805b60035481101561152557600381815481106113ad576113ad61214f565b5f91825260209091206004600690920201015460ff161561151d57600381815481106113db576113db61214f565b905f5260205f20906006020160010180546113f5906121dd565b80601f0160208091040260200160405190810160405280929190818152602001828054611421906121dd565b801561146c5780601f106114435761010080835404028352916020019161146c565b820191905f5260205f20905b81548152906001019060200180831161144f57829003601f168201915b50505050508683815181106114835761148361214f565b6020026020010181905250600381815481106114a1576114a161214f565b905f5260205f209060060201600201548583815181106114c3576114c361214f565b602002602001018181525050600381815481106114e2576114e261214f565b905f5260205f209060060201600301548483815181106115045761150461214f565b60209081029190910101528161151981612366565b9250505b600101611390565b505050909192565b6003818154811061153c575f80fd5b5f918252602090912060069091020180546001820180546001600160a01b0390921693509061156a906121dd565b80601f0160208091040260200160405190810160405280929190818152602001828054611596906121dd565b80156115e15780601f106115b8576101008083540402835291602001916115e1565b820191905f5260205f20905b8154815290600101906020018083116115c457829003601f168201915b5050506002840154600385015460048601546005909601549495919490935060ff909116915086565b6116126119ae565b5f5b60035481101561174a575f600382815481106116325761163261214f565b905f5260205f209060060201600301541115611742575f6003828154811061165c5761165c61214f565b905f5260205f2090600602015f015f9054906101000a90046001600160a01b03166001600160a01b031663853828b66040518163ffffffff1660e01b81526004016020604051808303815f875af11580156116b9573d5f803e3d5ffd5b505050506040513d601f19601f820116820180604052508101906116dd9190612163565b90505f600383815481106116f3576116f361214f565b905f5260205f20906006020160030181905550817fb073e6fbd06d7557d2c82f414fee57de28e7fb517ecc0afdd6b1fc57034a9cb88260405161173891815260200190565b60405180910390a2505b600101611614565b506040516370a0823160e01b81523060048201525f907f00000000000000000000000000000000000000000000000000000000000000006001600160a01b0316906370a0823190602401602060405180830381865afa1580156117af573d5f803e3d5ffd5b505050506040513d601f19601f820116820180604052508101906117d39190612163565b9050801561085e5760025461085e906001600160a01b037f00000000000000000000000000000000000000000000000000000000000000008116911683611a07565b61181d6119ae565b6001600160a01b0381166118825760405162461bcd60e51b815260206004820152602660248201527f4f776e61626c653a206e6577206f776e657220697320746865207a65726f206160448201526564647265737360d01b60648201526084016102e1565b61085e81611bdb565b6118936119ae565b60035482106118b45760405162461bcd60e51b81526004016102e190612125565b5f600383815481106118c8576118c861214f565b905f5260205f2090600602016002015490505f82826118e561050c565b6118ef9190612320565b6118f9919061218e565b90506127108111156119475760405162461bcd60e51b8152602060048201526017602482015276416c6c6f636174696f6e2065786365656473203130302560481b60448201526064016102e1565b826003858154811061195b5761195b61214f565b905f5260205f20906006020160020181905550837f4013b0db7cf4aa4abdbe70714f5bcf2f1c3080326667c626ee8cc14a3288282f846040516119a091815260200190565b60405180910390a250505050565b5f546001600160a01b03163314610ed85760405162461bcd60e51b815260206004820181905260248201527f4f776e61626c653a2063616c6c6572206973206e6f7420746865206f776e657260448201526064016102e1565b6040516001600160a01b038316602482015260448101829052611a6a90849063a9059cbb60e01b906064015b60408051601f198184030181529190526020810180516001600160e01b03166001600160e01b031990931692909217909152611c2a565b505050565b600260015403611ac15760405162461bcd60e51b815260206004820152601f60248201527f5265656e7472616e637947756172643a207265656e7472616e742063616c6c0060448201526064016102e1565b6002600155565b801580611b405750604051636eb1769f60e11b81523060048201526001600160a01b03838116602483015284169063dd62ed3e90604401602060405180830381865afa158015611b1a573d5f803e3d5ffd5b505050506040513d601f19601f82011682018060405250810190611b3e9190612163565b155b611bab5760405162461bcd60e51b815260206004820152603660248201527f5361666545524332303a20617070726f76652066726f6d206e6f6e2d7a65726f60448201527520746f206e6f6e2d7a65726f20616c6c6f77616e636560501b60648201526084016102e1565b6040516001600160a01b038316602482015260448101829052611a6a90849063095ea7b360e01b90606401611a33565b5f80546001600160a01b038381166001600160a01b0319831681178455604051919092169283917f8be0079c531659141344cd1fd0a4f28419497f9722a3daafe3b4186f6b6457e09190a35050565b5f611c7e826040518060400160405280602081526020017f5361666545524332303a206c6f772d6c6576656c2063616c6c206661696c6564815250856001600160a01b0316611cfd9092919063ffffffff16565b905080515f1480611c9e575080806020019051810190611c9e919061237e565b611a6a5760405162461bcd60e51b815260206004820152602a60248201527f5361666545524332303a204552433230206f7065726174696f6e20646964206e6044820152691bdd081cdd58d8d9595960b21b60648201526084016102e1565b6060611d0b84845f85611d13565b949350505050565b606082471015611d745760405162461bcd60e51b815260206004820152602660248201527f416464726573733a20696e73756666696369656e742062616c616e636520666f6044820152651c8818d85b1b60d21b60648201526084016102e1565b5f80866001600160a01b03168587604051611d8f919061239d565b5f6040518083038185875af1925050503d805f8114611dc9576040519150601f19603f3d011682016040523d82523d5f602084013e611dce565b606091505b5091509150611ddf87838387611dea565b979650505050505050565b60608315611e585782515f03611e51576001600160a01b0385163b611e515760405162461bcd60e51b815260206004820152601d60248201527f416464726573733a2063616c6c20746f206e6f6e2d636f6e747261637400000060448201526064016102e1565b5081611d0b565b611d0b8383815115611e6d5781518083602001fd5b8060405162461bcd60e51b81526004016102e191906123b8565b5f60208284031215611e97575f80fd5b5035919050565b80356001600160a01b038116811461048f575f80fd5b634e487b7160e01b5f52604160045260245ffd5b5f805f60608486031215611eda575f80fd5b611ee384611e9e565b9250602084013567ffffffffffffffff80821115611eff575f80fd5b818601915086601f830112611f12575f80fd5b813581811115611f2457611f24611eb4565b604051601f8201601f19908116603f01168101908382118183101715611f4c57611f4c611eb4565b81604052828152896020848701011115611f64575f80fd5b826020860160208301375f602084830101528096505050505050604084013590509250925092565b5f60208284031215611f9c575f80fd5b611fa582611e9e565b9392505050565b5f5b83811015611fc6578181015183820152602001611fae565b50505f910152565b5f8151808452611fe5816020860160208601611fac565b601f01601f19169290920160200192915050565b5f815180845260208085019450602084015f5b838110156120285781518752958201959082019060010161200c565b509495945050505050565b5f606082016060835280865180835260808501915060808160051b860101925060208089015f5b8381101561208857607f19888703018552612076868351611fce565b9550938201939082019060010161205a565b5050505050828103602084015261209f8186611ff9565b905082810360408401526120b38185611ff9565b9695505050505050565b6001600160a01b038716815260c0602082018190525f906120e090830188611fce565b6040830196909652506060810193909352901515608083015260a09091015292915050565b5f8060408385031215612116575f80fd5b50508035926020909101359150565b60208082526010908201526f496e76616c696420737472617465677960801b604082015260600190565b634e487b7160e01b5f52603260045260245ffd5b5f60208284031215612173575f80fd5b5051919050565b634e487b7160e01b5f52601160045260245ffd5b808201808211156121a1576121a161217a565b92915050565b80820281158282048414176121a1576121a161217a565b5f826121d857634e487b7160e01b5f52601260045260245ffd5b500490565b600181811c908216806121f157607f821691505b60208210810361220f57634e487b7160e01b5f52602260045260245ffd5b50919050565b601f821115611a6a57805f5260205f20601f840160051c8101602085101561223a5750805b601f840160051c820191505b81811015612259575f8155600101612246565b5050505050565b815167ffffffffffffffff81111561227a5761227a611eb4565b61228e8161228884546121dd565b84612215565b602080601f8311600181146122c1575f84156122aa5750858301515b5f19600386901b1c1916600185901b178555612318565b5f85815260208120601f198616915b828110156122ef578886015182559484019460019091019084016122d0565b508582101561230c57878501515f19600388901b60f8161c191681555b505060018460011b0185555b505050505050565b818103818111156121a1576121a161217a565b6001600160a01b03841681526060602082018190525f9061235690830185611fce565b9050826040830152949350505050565b5f600182016123775761237761217a565b5060010190565b5f6020828403121561238e575f80fd5b81518015158114611fa5575f80fd5b5f82516123ae818460208701611fac565b9190910192915050565b602081525f611fa56020830184611fce56fea26469706673582212209d4f42a427e4c11cc1429fda951681515019450d1675863a2117e6c4e2ed472764736f6c63430008180033","linkReferences":{}},"methodIdentifiers":{"MAX_BPS()":"fd967f47","MAX_STRATEGIES()":"767f06ae","addStrategy(address,string,uint256)":"26988bc5","asset()":"38d52e0f","deactivateStrategy(uint256)":"456f948b","deployCapital(uint256)":"1611d407","emergencyWithdrawAll()":"dd191719","getStrategyCount()":"31e19cfa","getStrategyDistribution()":"bf7f93cb","getTotalAllocation()":"15d3b5d8","harvestAllStrategies()":"1997db76","harvestStrategy(uint256)":"0c36b3d2","owner()":"8da5cb5b","rebalance()":"7d7c2a1c","renounceOwnership()":"715018a6","setVault(address)":"6817031b","strategies(uint256)":"d574ea3d","totalDeployedAssets()":"148370fb","transferOwnership(address)":"f2fde38b","updateStrategyAllocation(uint256,uint256)":"fe1148e1","vault()":"fbfa77cf"},"id":44}