{"abi":[{"type":"constructor","inputs":[{"name":"_initialOwner","type":"address","internalType":"address"}],"stateMutability":"nonpayable"},{"type":"function","name":"addAuthorizedCaller","inputs":[{"name":"caller","type":"address","internalType":"address"}],"outputs":[],"stateMutability":"nonpayable"},{"type":"function","name":"authorizedCallers","inputs":[{"name":"","type":"address","internalType":"address"}],"outputs":[{"name":"","type":"bool","internalType":"bool"}],"stateMutability":"view"},{"type":"function","name":"checkMilestone","inputs":[{"name":"user","type":"address","internalType":"address"},{"name":"totalDeposited","type":"uint256","internalType":"uint256"}],"outputs":[],"stateMutability":"nonpayable"},{"type":"function","name":"completeLesson","inputs":[{"name":"user","type":"address","internalType":"address"},{"name":"lessonId","type":"uint256","internalType":"uint256"}],"outputs":[],"stateMutability":"nonpayable"},{"type":"function","name":"getLevelName","inputs":[{"name":"level","type":"uint8","internalType":"enum ProgressTracker.Level"}],"outputs":[{"name":"","type":"string","internalType":"string"}],"stateMutability":"pure"},{"type":"function","name":"getUserLevel","inputs":[{"name":"user","type":"address","internalType":"address"}],"outputs":[{"name":"","type":"uint256","internalType":"uint256"}],"stateMutability":"view"},{"type":"function","name":"getUserStats","inputs":[{"name":"user","type":"address","internalType":"address"}],"outputs":[{"name":"level","type":"uint8","internalType":"enum ProgressTracker.Level"},{"name":"lessonsCompleted","type":"uint256","internalType":"uint256"},{"name":"quizzesPassed","type":"uint256","internalType":"uint256"},{"name":"totalScore","type":"uint256","internalType":"uint256"},{"name":"lastActivity","type":"uint256","internalType":"uint256"}],"stateMutability":"view"},{"type":"function","name":"initializeUser","inputs":[{"name":"user","type":"address","internalType":"address"}],"outputs":[],"stateMutability":"nonpayable"},{"type":"function","name":"milestoneCount","inputs":[],"outputs":[{"name":"","type":"uint256","internalType":"uint256"}],"stateMutability":"view"},{"type":"function","name":"milestones","inputs":[{"name":"","type":"uint256","internalType":"uint256"}],"outputs":[{"name":"depositAmount","type":"uint256","internalType":"uint256"},{"name":"lessonsRequired","type":"uint256","internalType":"uint256"},{"name":"quizzesRequired","type":"uint256","internalType":"uint256"},{"name":"levelToUnlock","type":"uint8","internalType":"enum ProgressTracker.Level"},{"name":"name","type":"string","internalType":"string"},{"name":"exists","type":"bool","internalType":"bool"}],"stateMutability":"view"},{"type":"function","name":"nftContract","inputs":[],"outputs":[{"name":"","type":"address","internalType":"address"}],"stateMutability":"view"},{"type":"function","name":"owner","inputs":[],"outputs":[{"name":"","type":"address","internalType":"address"}],"stateMutability":"view"},{"type":"function","name":"passQuiz","inputs":[{"name":"user","type":"address","internalType":"address"},{"name":"quizId","type":"uint256","internalType":"uint256"}],"outputs":[],"stateMutability":"nonpayable"},{"type":"function","name":"removeAuthorizedCaller","inputs":[{"name":"caller","type":"address","internalType":"address"}],"outputs":[],"stateMutability":"nonpayable"},{"type":"function","name":"renounceOwnership","inputs":[],"outputs":[],"stateMutability":"nonpayable"},{"type":"function","name":"setNFTContract","inputs":[{"name":"_nftContract","type":"address","internalType":"address"}],"outputs":[],"stateMutability":"nonpayable"},{"type":"function","name":"totalUsers","inputs":[],"outputs":[{"name":"","type":"uint256","internalType":"uint256"}],"stateMutability":"view"},{"type":"function","name":"transferOwnership","inputs":[{"name":"newOwner","type":"address","internalType":"address"}],"outputs":[],"stateMutability":"nonpayable"},{"type":"function","name":"updateScore","inputs":[{"name":"user","type":"address","internalType":"address"},{"name":"score","type":"uint256","internalType":"uint256"}],"outputs":[],"stateMutability":"nonpayable"},{"type":"function","name":"userProgress","inputs":[{"name":"","type":"address","internalType":"address"}],"outputs":[{"name":"currentLevel","type":"uint8","internalType":"enum ProgressTracker.Level"},{"name":"lessonsCompleted","type":"uint256","internalType":"uint256"},{"name":"quizzesPassed","type":"uint256","internalType":"uint256"},{"name":"totalScore","type":"uint256","internalType":"uint256"},{"name":"lastActivityTimestamp","type":"uint256","internalType":"uint256"},{"name":"initialized","type":"bool","internalType":"bool"}],"stateMutability":"view"},{"type":"event","name":"LessonCompleted","inputs":[{"name":"user","type":"address","indexed":true,"internalType":"address"},{"name":"lessonId","type":"uint256","indexed":false,"internalType":"uint256"}],"anonymous":false},{"type":"event","name":"LevelUp","inputs":[{"name":"user","type":"address","indexed":true,"internalType":"address"},{"name":"newLevel","type":"uint8","indexed":false,"internalType":"enum ProgressTracker.Level"}],"anonymous":false},{"type":"event","name":"MilestoneReached","inputs":[{"name":"user","type":"address","indexed":true,"internalType":"address"},{"name":"milestoneId","type":"uint256","indexed":false,"internalType":"uint256"}],"anonymous":false},{"type":"event","name":"OwnershipTransferred","inputs":[{"name":"previousOwner","type":"address","indexed":true,"internalType":"address"},{"name":"newOwner","type":"address","indexed":true,"internalType":"address"}],"anonymous":false},{"type":"event","name":"QuizPassed","inputs":[{"name":"user","type":"address","indexed":true,"internalType":"address"},{"name":"quizId","type":"uint256","indexed":false,"internalType":"uint256"},{"name":"score","type":"uint256","indexed":false,"internalType":"uint256"}],"anonymous":false},{"type":"event","name":"UserInitialized","inputs":[{"name":"user","type":"address","indexed":true,"internalType":"address"}],"anonymous":false}],"bytecode":{"object":"0x608060405234801562000010575f80fd5b5060405162001949380380620019498339810160408190526200003391620004b0565b6200003e336200005a565b62000049816200005a565b62000053620000a9565b506200065d565b5f80546001600160a01b038381166001600160a01b0319831681178455604051919092169283917f8be0079c531659141344cd1fd0a4f28419497f9722a3daafe3b4186f6b6457e09190a35050565b6040518060c00160405280670de0b6b3a764000081526020015f81526020015f815260200160016005811115620000e457620000e4620004df565b8152604080518082018252600d81526c119a5c9cdd0811195c1bdcda5d609a1b6020828101919091528084019190915260019282018390525f80526002815283517fac33ff75c19e70fe83507db0d683fd3465c996598dc972688b7ace676c89077b908155908401517fac33ff75c19e70fe83507db0d683fd3465c996598dc972688b7ace676c89077c55908301517fac33ff75c19e70fe83507db0d683fd3465c996598dc972688b7ace676c89077d5560608301517fac33ff75c19e70fe83507db0d683fd3465c996598dc972688b7ace676c89077e805492939192909160ff1990911690836005811115620001df57620001df620004df565b021790555060808201516004820190620001fa908262000591565b5060a0918201516005918201805491151560ff199283161790556040805160c0810182525f808252600360208084019182528385018381526002606086018181528751808901909852600e88526d1058dd1a5d994814dd1d59195b9d60921b88850152608087019790975260019986018a90529389905292905282517fe90b7bceb6e7df5418fb78d8ee546e97c83a08bbccc01a0644d599ccd2a7c2e090815590517fe90b7bceb6e7df5418fb78d8ee546e97c83a08bbccc01a0644d599ccd2a7c2e15590517fe90b7bceb6e7df5418fb78d8ee546e97c83a08bbccc01a0644d599ccd2a7c2e25591517fe90b7bceb6e7df5418fb78d8ee546e97c83a08bbccc01a0644d599ccd2a7c2e380549296939591949093921691908490811115620003275762000327620004df565b02179055506080820151600482019062000342908262000591565b5060a0918201516005918201805491151560ff199283161790556040805160c0810182525f80825260076020808401918252600384860181815260608601918252865180880190975260118752702232a33490283930b1ba34ba34b7b732b960791b878401526080860196909652600198850189905260029384905292905282517f679795a0195a1b76cdebb7c51d74e058aee92919b8c3389af86ef24535e8a28c90815590517f679795a0195a1b76cdebb7c51d74e058aee92919b8c3389af86ef24535e8a28d5592517f679795a0195a1b76cdebb7c51d74e058aee92919b8c3389af86ef24535e8a28e55517f679795a0195a1b76cdebb7c51d74e058aee92919b8c3389af86ef24535e8a28f80549296939591949093921691908490811115620004735762000473620004df565b0217905550608082015160048201906200048e908262000591565b5060a091909101516005918201805460ff191691151591909117905560039055565b5f60208284031215620004c1575f80fd5b81516001600160a01b0381168114620004d8575f80fd5b9392505050565b634e487b7160e01b5f52602160045260245ffd5b634e487b7160e01b5f52604160045260245ffd5b600181811c908216806200051c57607f821691505b6020821081036200053b57634e487b7160e01b5f52602260045260245ffd5b50919050565b601f8211156200058c57805f5260205f20601f840160051c81016020851015620005685750805b601f840160051c820191505b8181101562000589575f815560010162000574565b50505b505050565b81516001600160401b03811115620005ad57620005ad620004f3565b620005c581620005be845462000507565b8462000541565b602080601f831160018114620005fb575f8415620005e35750858301515b5f19600386901b1c1916600185901b17855562000655565b5f85815260208120601f198616915b828110156200062b578886015182559484019460019091019084016200060a565b50858210156200064957878501515f19600388901b60f8161c191681555b505060018460011b0185555b505050505050565b6112de806200066b5f395ff3fe608060405234801561000f575f80fd5b5060043610610126575f3560e01c80638da5cb5b116100a9578063bff1f9e11161006e578063bff1f9e1146102de578063d56d229d146102e7578063e89e4ed6146102fa578063f2fde38b1461031f578063f7a3000314610332575f80fd5b80638da5cb5b14610218578063a7bac3661461023c578063a7ccabdf1461025c578063b7aa02311461026f578063bb3cbae114610282575f80fd5b8063536fff6c116100ef578063536fff6c146101a55780635ce34894146101d757806365d97724146101ea57806366f46be1146101fd578063715018a614610210575f80fd5b8062be49841461012a5780630681ca551461013f57806313a155ea1461015b57806321923bde1461016e5780634e43603a14610181575b5f80fd5b61013d610138366004611019565b610345565b005b61014860055481565b6040519081526020015b60405180910390f35b61013d610169366004611019565b6104ec565b61014861017c366004611019565b61055f565b61019461018f366004611019565b610591565b60405161015295949392919061106d565b6101c76101b3366004611019565b60036020525f908152604090205460ff1681565b6040519015158152602001610152565b61013d6101e536600461109d565b61065b565b61013d6101f836600461109d565b61075c565b61013d61020b36600461109d565b61080b565b61013d6108f6565b5f546001600160a01b03165b6040516001600160a01b039091168152602001610152565b61024f61024a3660046110c5565b610909565b6040516101529190611126565b61013d61026a366004611019565b610a99565b61013d61027d366004611019565b610b22565b6102cc610290366004611019565b600160208190525f918252604090912080549181015460028201546003830154600484015460059094015460ff95861695939492939192911686565b60405161015296959493929190611138565b61014860045481565b600654610224906001600160a01b031681565b61030d610308366004611170565b610b4a565b60405161015296959493929190611187565b61013d61032d366004611019565b610c0f565b61013d61034036600461109d565b610c88565b335f9081526003602052604090205460ff168061036b57505f546001600160a01b031633145b6103905760405162461bcd60e51b8152600401610387906111cd565b60405180910390fd5b6001600160a01b0381165f9081526001602052604090206005015460ff16156103f15760405162461bcd60e51b8152602060048201526013602482015272105b1c9958591e481a5b9a5d1a585b1a5e9959606a1b6044820152606401610387565b6040805160c0810182525f808252602080830182905282840182905260608301829052426080840152600160a084018190526001600160a01b03861683529081905292902081518154929391929091839160ff19169083600581111561045957610459611039565b0217905550602082015160018201556040820151600282015560608201516003820155608082015160048083019190915560a0909201516005909101805460ff19169115159190911790558054905f6104b183611209565b90915550506040516001600160a01b038216907f51f3e16491a1245725e3dd6aab55df59539bc9a5a3c1984f588ca1beef5d2238905f90a250565b6104f4610d5d565b6001600160a01b03811661053c5760405162461bcd60e51b815260206004820152600f60248201526e496e76616c6964206164647265737360881b6044820152606401610387565b6001600160a01b03165f908152600360205260409020805460ff19166001179055565b6001600160a01b0381165f9081526001602052604081205460ff16600581111561058b5761058b611039565b92915050565b6001600160a01b0381165f90815260016020526040808220815160c081019092528054839283928392839283929091829060ff1660058111156105d6576105d6611039565b60058111156105e7576105e7611039565b815260200160018201548152602001600282015481526020016003820154815260200160048201548152602001600582015f9054906101000a900460ff1615151515815250509050805f01518160200151826040015183606001518460800151955095509550955095505091939590929450565b335f9081526003602052604090205460ff168061068157505f546001600160a01b031633145b61069d5760405162461bcd60e51b8152600401610387906111cd565b6001600160a01b0382165f9081526001602052604090206005015460ff166106d75760405162461bcd60e51b815260040161038790611221565b6001600160a01b0382165f90815260016020526040812060028101805491926106ff83611209565b9091555050426004820155604080518381525f60208201526001600160a01b038516917f2ea3e42150c3d626523048dcb8f1e14c2ce2721af2ebaf663bf290f3ccd3608c91015b60405180910390a261075783610db6565b505050565b335f9081526003602052604090205460ff168061078257505f546001600160a01b031633145b61079e5760405162461bcd60e51b8152600401610387906111cd565b6001600160a01b0382165f9081526001602052604090206005015460ff166107d85760405162461bcd60e51b815260040161038790611221565b6001600160a01b0382165f908152600160205260408120600301805483929061080290849061124f565b90915550505050565b335f9081526003602052604090205460ff168061083157505f546001600160a01b031633145b61084d5760405162461bcd60e51b8152600401610387906111cd565b6001600160a01b0382165f9081526001602052604090206005015460ff166108875760405162461bcd60e51b815260040161038790611221565b6001600160a01b0382165f9081526001602081905260408220908101805491926108b083611209565b90915550504260048201556040518281526001600160a01b038416907f195321fa866c240d83619b20aab707730f3eaeb96fc3a62416ab3875eb065aef90602001610746565b6108fe610d5d565b6109075f610f2e565b565b60605f82600581111561091e5761091e611039565b036109475750506040805180820190915260088152672732bbb1b7b6b2b960c11b602082015290565b600182600581111561095b5761095b611039565b036109835750506040805180820190915260078152662632b0b93732b960c91b602082015290565b600282600581111561099757610997611039565b036109bf57505060408051808201909152600781526614dd1d59195b9d60ca1b602082015290565b60038260058111156109d3576109d3611039565b03610a0057505060408051808201909152600c81526b283930b1ba34ba34b7b732b960a11b602082015290565b6004826005811115610a1457610a14611039565b03610a3b575050604080518082019091526006815265115e1c195c9d60d21b602082015290565b6005826005811115610a4f57610a4f611039565b03610a7657505060408051808201909152600681526526b0b9ba32b960d11b602082015290565b50506040805180820190915260078152662ab735b737bbb760c91b602082015290565b610aa1610d5d565b6001600160a01b038116610ae95760405162461bcd60e51b815260206004820152600f60248201526e496e76616c6964206164647265737360881b6044820152606401610387565b600680546001600160a01b039092166001600160a01b0319909216821790555f908152600360205260409020805460ff19166001179055565b610b2a610d5d565b6001600160a01b03165f908152600360205260409020805460ff19169055565b600260208190525f918252604090912080546001820154928201546003830154600484018054939594929360ff9092169291610b8590611262565b80601f0160208091040260200160405190810160405280929190818152602001828054610bb190611262565b8015610bfc5780601f10610bd357610100808354040283529160200191610bfc565b820191905f5260205f20905b815481529060010190602001808311610bdf57829003601f168201915b5050506005909301549192505060ff1686565b610c17610d5d565b6001600160a01b038116610c7c5760405162461bcd60e51b815260206004820152602660248201527f4f776e61626c653a206e6577206f776e657220697320746865207a65726f206160448201526564647265737360d01b6064820152608401610387565b610c8581610f2e565b50565b335f9081526003602052604090205460ff1680610cae57505f546001600160a01b031633145b610cca5760405162461bcd60e51b8152600401610387906111cd565b6001600160a01b0382165f9081526001602052604090206005015460ff16610d045760405162461bcd60e51b815260040161038790611221565b6001600160a01b0382165f90815260016020526040812042600482015590815460ff166005811115610d3857610d38611039565b148015610d4457505f82115b15610d5457610d54836001610f7d565b61075783610db6565b5f546001600160a01b031633146109075760405162461bcd60e51b815260206004820181905260248201527f4f776e61626c653a2063616c6c6572206973206e6f7420746865206f776e65726044820152606401610387565b6001600160a01b0381165f90815260016020526040808220815160c081019092528054829060ff166005811115610def57610def611039565b6005811115610e0057610e00611039565b8152600182810154602083015260028301546040830152600383015460608301526004830154608083015260059092015460ff16151560a09091015290915081516005811115610e5257610e52611039565b148015610e6457506003816020015110155b15610e7457610e74826002610f7d565b600281516005811115610e8957610e89611039565b148015610e9b57506007816020015110155b15610eab57610eab826003610f7d565b600381516005811115610ec057610ec0611039565b148015610ed25750600f816020015110155b15610ee257610ee2826004610f7d565b600481516005811115610ef757610ef7611039565b148015610f0957506014816020015110155b8015610f1a5750600f816040015110155b15610f2a57610f2a826005610f7d565b5050565b5f80546001600160a01b038381166001600160a01b0319831681178455604051919092169283917f8be0079c531659141344cd1fd0a4f28419497f9722a3daafe3b4186f6b6457e09190a35050565b6001600160a01b0382165f9081526001602081905260409091208054839260ff1990911690836005811115610fb457610fb4611039565b0217905550816001600160a01b03167fa49b8576e012f713baa7dceadb7d709aaec8773b498ecfe582d8b9c0c8fd074f82604051610ff2919061129a565b60405180910390a25050565b80356001600160a01b0381168114611014575f80fd5b919050565b5f60208284031215611029575f80fd5b61103282610ffe565b9392505050565b634e487b7160e01b5f52602160045260245ffd5b6006811061106957634e487b7160e01b5f52602160045260245ffd5b9052565b60a0810161107b828861104d565b8560208301528460408301528360608301528260808301529695505050505050565b5f80604083850312156110ae575f80fd5b6110b783610ffe565b946020939093013593505050565b5f602082840312156110d5575f80fd5b813560068110611032575f80fd5b5f81518084525f5b81811015611107576020818501810151868301820152016110eb565b505f602082860101526020601f19601f83011685010191505092915050565b602081525f61103260208301846110e3565b60c08101611146828961104d565b6020820196909652604081019490945260608401929092526080830152151560a090910152919050565b5f60208284031215611180575f80fd5b5035919050565b8681528560208201528460408201526111a3606082018561104d565b60c060808201525f6111b860c08301856110e3565b905082151560a0830152979650505050505050565b6020808252600e908201526d139bdd08185d5d1a1bdc9a5e995960921b604082015260600190565b634e487b7160e01b5f52601160045260245ffd5b5f6001820161121a5761121a6111f5565b5060010190565b602080825260149082015273155cd95c881b9bdd081a5b9a5d1a585b1a5e995960621b604082015260600190565b8082018082111561058b5761058b6111f5565b600181811c9082168061127657607f821691505b60208210810361129457634e487b7160e01b5f52602260045260245ffd5b50919050565b6020810161058b828461104d56fea26469706673582212204152cca2ecc19de0359f2cd4c7fa37277945b66b90f024a95b8425af2da29d5a64736f6c63430008180033","linkReferences":{}},"methodIdentifiers":{"addAuthorizedCaller(address)":"13a155ea","authorizedCallers(address)":"536fff6c","checkMilestone(address,uint256)":"f7a30003","completeLesson(address,uint256)":"66f46be1","getLevelName(uint8)":"a7bac366","getUserLevel(address)":"21923bde","getUserStats(address)":"4e43603a","initializeUser(address)":"00be4984","milestoneCount()":"0681ca55","milestones(uint256)":"e89e4ed6","nftContract()":"d56d229d","owner()":"8da5cb5b","passQuiz(address,uint256)":"5ce34894","removeAuthorizedCaller(address)":"b7aa0231","renounceOwnership()":"715018a6","setNFTContract(address)":"a7ccabdf","totalUsers()":"bff1f9e1","transferOwnership(address)":"f2fde38b","updateScore(address,uint256)":"65d97724","userProgress(address)":"bb3cbae1"},"id":46}